:020000040800F2
:1000000000000120DD750008FD1D0008451E0008E8
:10001000651E00086D1E0008751E00080000000027
:100020000000000000000000000000007D1E00082D
:10003000891E000800000000951E0008BD1E000873
:10004000257600082576000825760008A11E000800
:1000500025760008257600080D1F00081D1F0008E2
:1000600025760008511F000825760008257600082F
:1000700025760008257600082576000825760008F4
:1000800025760008257600082576000825760008E4
:10009000257600082576000825760008611F0008EF
:1000A00025760008257600082576000825760008C4
:1000B00025760008257600082576000825760008B4
:1000C00025760008257600082576000825760008A4
:1000D0002576000825760008257600082576000894
:1000E000E11E0008257600082576000800000000C3
:1000F0000000000000000000000000000000000000
:1001000000000000000000002576000825760008A9
:100110002576000825760008257600082576000853
:100120002576000825760008257600082576000843
:1001300025760008F51E0008011F00082576000836
:100140002576000825760008257600082576000823
:10015000000000000000000000000000000000009F
:10016000000000000000000000000000000000008F
:10017000000000000000000000000000000000007F
:10018000000000000000000000000000000000006F
:10019000000000000000000000000000000000005F
:1001A000000000000000000000000000000000004F
:1001B000000000000000000000000000000000003F
:1001C000000000000000000000000000000000002F
:1001D000000000000000000000000000000000001F
:0401E0005FF8E0F1F3
:1001E80008B540F20C10074BC2F200001B1A062B90
:1001F80000D808BD40F20003C0F20003002BF8D07D
:100208009847F6E70F01002008B540F20C1040F2BD
:100218000C13C2F20000C2F200031B1A9B1003EB7E
:10022800D373591000D108BD40F20002C0F2000299
:10023800002AF8D09047F6E710B540F21014C2F241
:100248000004237873B9FFF7CBFF40F20003C0F234
:1002580000032BB147F6A040C0F60000AFF30080C2
:100268000123237010BD00BF08B540F20003C0F29F
:1002780000034BB147F6A04040F21411C0F600004D
:10028800C2F20001AFF3008040F20C10C2F200008D
:1002980003682BB140F20003C0F2000303B1984792
:1002A800BDE80840B0E700BF81F0004102E000BFB0
:1002B80083F0004330B54FEA41044FEA430594EA1E
:1002C800050F08BF90EA020F1FBF54EA000C55EA59
:1002D800020C7FEA645C7FEA655C00F0E2804FEA2A
:1002E8005454D4EB5555B8BF6D420CDD2C4480EA0C
:1002F800020281EA030382EA000083EA010180EA3C
:10030800020281EA0303362D88BF30BD11F0004F89
:100318004FEA01314FF4801C4CEA113102D04042BF
:1003280061EB410113F0004F4FEA03334CEA1333FA
:1003380002D0524263EB430394EA050F00F0A78012
:10034800A4F10104D5F1200E0DDB02FA0EFC22FA0D
:1003580005F2801841F1000103FA0EF2801843FA01
:1003680005F359410EE0A5F120050EF1200E012AF2
:1003780003FA0EFC28BF4CF0020C43FA05F3C01830
:1003880051EBE37101F0004507D54FF0000EDCF1A9
:10039800000C7EEB00006EEB0101B1F5801F1BD352
:1003A800B1F5001F0CD349085FEA30004FEA3C0C56
:1003B80004F101044FEA445212F5800F80F09A804C
:1003C800BCF1004F08BF5FEA500C50F1000041EB50
:1003D800045141EA050130BD5FEA4C0C404141EB54
:1003E800010111F4801FA4F10104E9D191F0000F7B
:1003F80004BF01460020B1FA81F308BF2033A3F1FE
:100408000B03B3F120020CDA0C3208DD02F1140CF4
:10041800C2F10C0201FA0CF021FA02F10CE002F12F
:100428001402D8BFC2F1200C01FA02F120FA0CFC28
:10043800DCBF41EA0C019040E41AA2BF01EB045171
:10044800294330BD6FEA04041F3C1CDA0C340EDC6F
:1004580004F11404C4F1200220FA04F001FA02F3B2
:1004680040EA030021FA04F345EA030130BDC4F170
:100478000C04C4F1200220FA02F001FA04F340EA65
:100488000300294630BD21FA04F0294630BD94F016
:10049800000F83F4801306BF81F480110134013DFD
:1004A8004EE77FEA645C18BF7FEA655C29D094EA6E
:1004B800050F08BF90EA020F05D054EA000C04BFEC
:1004C8001946104630BD91EA030F1EBF00210020D7
:1004D80030BD5FEA545C05D14000494128BF41F076
:1004E800004130BD14F580043CBF01F5801130BDDA
:1004F80001F0004545F0FE4141F470014FF0000065
:1005080030BD7FEA645C1ABF194610467FEA655C15
:100518001CBF0B46024650EA013406BF52EA0335B7
:1005280091EA030F41F4002130BD00BF90F0000FA5
:1005380004BF0021704730B54FF4806404F13204E1
:100548004FF000054FF0000150E700BF90F0000F9A
:1005580004BF0021704730B54FF4806404F13204C1
:1005680010F0004548BF40424FF000013EE700BF91
:1005780042004FEAE2014FEA31014FEA02701FBF21
:1005880012F07F4393F07F4F81F06051704792F0F3
:10059800000F14BF93F07F4F704730B54FF460746D
:1005A80001F0004521F0004120E700BF50EA0102B8
:1005B80008BF704730B54FF000050AE050EA010265
:1005C80008BF704730B511F0004502D5404261EBD5
:1005D80041014FF4806404F132045FEA915C3FF416
:1005E800DCAE4FF003025FEADC0C18BF03325FEAAF
:1005F800DC0C18BF033202EBDC02C2F1200300FA64
:1006080003FC20FA02F001FA03FE40EA0E0021FA88
:1006180002F11444C1E600BF70B54FF0FF0C4CF472
:10062800E06C1CEA11541DBF1CEA135594EA0C0F28
:1006380095EA0C0F00F0DEF82C4481EA030621EA63
:100648004C5123EA4C5350EA013518BF52EA03359E
:1006580041F4801143F4801338D0A0FB02CE4FF050
:100668000005E1FB02E506F00042E0FB03E54FF080
:100678000006E1FB03569CF0000F18BF4EF0010E78
:10068800A4F1FF04B6F5007F64F5407404D25FEA74
:100698004E0E6D4146EB060642EAC62141EA555127
:1006A8004FEAC52040EA5E504FEACE2EB4F1FD0C69
:1006B80088BFBCF5E06F1ED8BEF1004F08BF5FEAE7
:1006C800500E50F1000041EB045170BD06F0004699
:1006D80046EA010140EA020081EA0301B4EB5C0446
:1006E800C2BFD4EB0C0541EA045170BD41F480113E
:1006F8004FF0000E013C00F3AB8014F1360FDEBF63
:10070800002001F0004170BDC4F10004203C35DA3E
:100718000C341BDC04F11404C4F1200500FA05F3C1
:1007280020FA04F001FA05F240EA020001F0004262
:1007380021F0004110EBD37021FA04F642EB0601D8
:100748005EEA430E08BF20EAD37070BDC4F10C0402
:10075800C4F1200500FA04F320FA05F001FA04F2C6
:1007680040EA020001F0004110EBD37041F10001B2
:100778005EEA430E08BF20EAD37070BDC4F12005BD
:1007880000FA05F24EEA020E20FA04F301FA05F225
:1007980043EA020321FA04F001F0004121FA04F2CD
:1007A80020EA020000EBD3705EEA430E08BF20EA9D
:1007B800D37070BD94F0000F0FD101F000464000D7
:1007C80041EB010111F4801F08BF013CF7D041EA59
:1007D800060195F0000F18BF704703F0004652005D
:1007E80043EB030313F4801F08BF013DF7D043EA2E
:1007F8000603704794EA0C0F0CEA135518BF95EAE4
:100808000C0F0CD050EA410618BF52EA4306D1D16A
:1008180081EA030101F000414FF0000070BD50EA89
:10082800410606BF1046194652EA430619D094EA13
:100838000C0F02D150EA013613D195EA0C0F05D1FD
:1008480052EA03361CBF104619460AD181EA030151
:1008580001F0004141F0FE4141F470014FF0000009
:1008680070BD41F0FE4141F4780170BD70B54FF0A4
:10087800FF0C4CF4E06C1CEA11541DBF1CEA135524
:1008880094EA0C0F95EA0C0F00F0A7F8A4EB050406
:1008980081EA030E52EA03354FEA013100F08880FD
:1008A8004FEA03334FF0805545EA131343EA1263C6
:1008B8004FEA022245EA111545EA10654FEA00267B
:1008C8000EF000419D4208BF964244F1FD0404F534
:1008D800407402D25B084FEA3202B61A65EB030590
:1008E8005B084FEA32024FF480104FF4002CB6EB4D
:1008F800020E75EB030E22BFB61A754640EA0C00CD
:100908005B084FEA3202B6EB020E75EB030E22BF0C
:10091800B61A754640EA5C005B084FEA3202B6EB4D
:10092800020E75EB030E22BFB61A754640EA9C000C
:100938005B084FEA3202B6EB020E75EB030E22BFDC
:10094800B61A754640EADC0055EA060E18D04FEA9A
:10095800051545EA16754FEA06164FEAC30343EA3A
:1009680052734FEAC2025FEA1C1CC0D111F4801F07
:100978000BD141EA00014FF000004FF0004CB6E700
:1009880011F4801F04BF01430020B4F1FD0C88BF9F
:10099800BCF5E06F3FF6AFAEB5EB030C04BFB6EBAA
:1009A800020C5FEA500C50F1000041EB045170BD9D
:1009B8000EF0004E4EEA113114EB5C04C2BFD4EBCA
:1009C8000C0541EA045170BD41F480114FF0000E4E
:1009D800013C90E645EA060E8DE60CEA135594EACA
:1009E8000C0F08BF95EA0C0F3FF43BAF94EA0C0FCD
:1009F8000AD150EA01347FF434AF95EA0C0F7FF442
:100A080025AF104619462CE795EA0C0F06D152EA95
:100A180003353FF4FDAE1046194622E750EA410679
:100A280018BF52EA43067FF4C5AE50EA41047FF48A
:100A38000DAF52EA43057FF4EBAE12E74FF0FF3CEF
:100A480006E000BF4FF0010C02E000BF4FF0010CC0
:100A58004DF804CD4FEA410C7FEA6C5C4FEA430C39
:100A680018BF7FEA6C5C1BD001B050EA410C0CBF88
:100A780052EA430C91EA030F02BF90EA020F0020EA
:100A8800704710F1000F91EA030F58BF994208BF51
:100A980090422CBFD8176FEAE37040F0010070470E
:100AA8004FEA410C7FEA6C5C02D150EA013C07D165
:100AB8004FEA430C7FEA6C5CD6D152EA033CD3D0B0
:100AC8005DF8040B704700BF8446104662468C46AA
:100AD8001946634600E000BF01B5FFF7B7FF0028DD
:100AE80048BF10F1000F01BD4DF808EDFFF7F4FF06
:100AF8000CBF012000205DF808FB00BF4DF808ED91
:100B0800FFF7EAFF34BF012000205DF808FB00BFB3
:100B18004DF808EDFFF7E0FF94BF012000205DF8D5
:100B280008FB00BF4DF808EDFFF7CEFF94BF01208A
:100B380000205DF808FB00BF4DF808EDFFF7C4FF83
:100B480034BF012000205DF808FB00BF4FEA4102D6
:100B580012F5001215D211D56FF47873B3EB625207
:100B680012D94FEAC12343F0004343EA505311F02E
:100B7800004F23FA02F018BF404270474FF00000C0
:100B8800704750EA013005D111F0004008BF6FF0FE
:100B9800004070474FF00000704700BF4A0011D274
:100BA80012F5001211D20DD56FF47873B3EB6252BF
:100BB8000ED44FEAC12343F0004343EA505323FACB
:100BC80002F070474FF00000704750EA013002D140
:100BD8004FF0FF3070474FF0000070474FEA410276
:100BE800B2F1E04324BFB3F5001CDCF1FE5C0DD983
:100BF80001F0004C4FEAC0024CEA5070B2F1004FCD
:100C080040EB830008BF20F00100704711F0804FCF
:100C180021D113F13872BCBF01F00040704741F494
:100C280080114FEA5252C2F11802C2F1200C10FA98
:100C38000CF320FA02F018BF40F001004FEAC1237C
:100C48004FEAD32303FA0CFC40EA0C0023FA02F320
:100C58004FEA4303CCE77FEA625307D150EA0133F6
:100C68001EBF4FF0FE4040F44000704701F00040C6
:100C780040F0FE4040F40000704700BF80F00040A4
:100C880002E000BF81F0004142001FBF5FEA41035C
:100C980092EA030F7FEA226C7FEA236C6AD04FEA5C
:100CA8001262D2EB1363C1BFD218414048404140A1
:100CB800B8BF5B42192B88BF704710F0004F40F453
:100CC800000020F07F4018BF404211F0004F41F46F
:100CD800000121F07F4118BF494292EA030F3FD03B
:100CE800A2F1010241FA03FC10EB0C00C3F120034E
:100CF80001FA03F100F0004302D5494260EB4000DD
:100D0800B0F5000F13D3B0F1807F06D340084FEA47
:100D1800310102F10102FE2A51D2B1F1004F40EB3C
:100D2800C25008BF20F0010040EA030070474900A4
:100D380040EB000010F4000FA2F10102EDD1B0FA6F
:100D480080FCACF1080CB2EB0C0200FA0CF0AABF64
:100D580000EBC25052421843BCBFD0401843704702
:100D680092F0000F81F4000106BF80F40000013208
:100D7800013BB5E74FEA41037FEA226C18BF7FEADF
:100D8800236C21D092EA030F04D092F0000F08BF21
:100D98000846704790EA010F1CBF0020704712F008
:100DA8007F4F04D1400028BF40F00040704712F147
:100DB80000723CBF00F50000704700F0004343F0AC
:100DC800FE4040F4000070477FEA226216BF0846E2
:100DD8007FEA23630146420206BF5FEA412390EAA5
:100DE800010F40F4800070474FF0000304E000BF9B
:100DF80010F0004348BF40425FEA000C08BF70474C
:100E080043F0964301464FF000001CE050EA01020F
:100E180008BF70474FF000030AE000BF50EA010224
:100E280008BF704711F0004302D5404261EB410111
:100E38005FEA010C02BF84460146002043F0B64336
:100E480008BFA3F18053A3F50003BCFA8CF2083A5B
:100E5800A3EBC25310DB01FA02FC634400FA02FC64
:100E6800C2F12002BCF1004F20FA02F243EB02006B
:100E780008BF20F00100704702F1200201FA02FCCD
:100E8800C2F1200250EA4C0021FA02F243EB0200C0
:100E980008BF20EADC7070474FF0FF0C1CEAD05204
:100EA8001EBF1CEAD15392EA0C0F93EA0C0F6FD0C5
:100EB8001A4480EA010C400218BF5FEA41211ED0A3
:100EC8004FF0006343EA501043EA5111A0FB01318F
:100ED8000CF00040B1F5000F3EBF490041EAD37164
:100EE8005B0040EA010062F17F02FD2A1DD8B3F1E0
:100EF800004F40EBC25008BF20F00100704790F04F
:100F0800000F0CF0004C08BF49024CEA502040EAA0
:100F180051207F3AC2BFD2F1FF0340EAC250704766
:100F280040F400004FF00003013A5DDC12F1190FA4
:100F3800DCBF00F000407047C2F10002410021FA16
:100F480002F1C2F1200200FA02FC5FEA310040F12E
:100F5800000053EA4C0308BF20EADC70704792F0A7
:100F6800000F00F0004C02BF400010F4000F013ADF
:100F7800F9D040EA0C0093F0000F01F0004C02BFDA
:100F8800490011F4000F013BF9D041EA0C018FE749
:100F98000CEAD15392EA0C0F18BF93EA0C0F0AD04F
:100FA80030F0004C18BF31F0004CD8D180EA010075
:100FB80000F00040704790F0000F17BF90F0004F0E
:100FC800084691F0000F91F0004F14D092EA0C0FF0
:100FD80001D142020FD193EA0C0F03D14B0218BF83
:100FE800084608D180EA010000F0004040F0FE40C9
:100FF80040F40000704740F0FE4040F44000704765
:101008004FF0FF0C1CEAD0521EBF1CEAD15392EAE3
:101018000C0F93EA0C0F69D0A2EB030280EA010CD3
:1010280049024FEA402037D04FF0805343EA11116C
:1010380043EA10130CF000408B4238BF5B0042F1CA
:101048007D024FF4000C8B4224BF5B1A40EA0C006F
:10105800B3EB510F24BFA3EB510340EA5C00B3EBA1
:10106800910F24BFA3EB910340EA9C00B3EBD10F8F
:1010780024BFA3EBD10340EADC001B0118BF5FEAE1
:101088001C1CE0D1FD2A3FF650AF8B4240EBC2500A
:1010980008BF20F0010070470CF0004C4CEA5020CB
:1010A8007F32C2BFD2F1FF0340EAC250704740F41A
:1010B80000004FF00003013A37E792F0000F00F00C
:1010C800004C02BF400010F4000F013AF9D040EA8A
:1010D8000C0093F0000F01F0004C02BF490011F41E
:1010E800000F013BF9D041EA0C0195E70CEAD15316
:1010F80092EA0C0F08D142027FF47DAF93EA0C0FFD
:101108007FF470AF084676E793EA0C0F04D14B02E0
:101118003FF44CAF08466EE730F0004C18BF31F092
:10112800004CCAD130F000427FF45CAF31F000438C
:101138007FF43CAF5FE700BF40F20003C2F2000358
:1011480000B585B01868694600F0A2F9431C06D0BE
:10115800009B0198029A1844039B1044184405B058
:101168005DF804FB70B547F6B84647F6B845C0F6D3
:101178000006C0F60005761BB6101CBF043D00240F
:1011880005D0013455F8043F9847A642F9D147F6EF
:10119800BC4647F6B845C0F60005C0F60006761B03
:1011A80006F07AFDB6101CBF043D002406D00134B9
:1011B80055F8043F9847A642F9D170BD70BD00BFED
:1011C800032A70B412D940EA01039B070FD10C46D9
:1011D800034621461846043404330D680668AE42B7
:1011E80004D1043A1846032A2146F2D8C2B1057838
:1011F8000C78A54204BF02F1FF32002306D00CE0B0
:1012080010F8015F11F8014FA54206D1934203F18E
:101218000103F5D1002070BC7047281B70BC7047D3
:101228001046F8E70F2AF0B445D940EA01039B07B6
:1012380045D1A2F110070C4603463F0900EB0716FB
:10124800103625681033103443F8105C54F80C5CE1
:1012580043F80C5C54F8085C43F8085C54F8045CE8
:1012680043F8045CB342ECD17B1C02F00F0CBCF1D8
:10127800030F4FEA03131944034422D90E461D46AF
:10128800644656F8047B043C032C45F8047BF8D8E4
:10129800ACF1040402F0030224F0030404342344F0
:1012A800214432B10A4411F8014B914203F8014B31
:1012B800F9D1F0BC70470346002AF3D1F9E7034699
:1012C800F0E76246002AEDD1F3E700BF8307F0B4E8
:1012D80048D0541E002A43D0CDB2034602E0002C69
:1012E8003ED0144603F8015B13F0030F04F1FF32FC
:1012F800F5D1032C2DD9CDB20F2C45EA052545EAA9
:10130800054518D9A4F1100703F110061A463F093C
:1013180006EB07161560103242F80C5C42F8085CC0
:1013280042F8045CB242F5D104F00F040137032CF3
:1013380003EB07130DD91E462246043A46F8045B10
:10134800032AFAD8221F04F0030422F0030204320D
:1013580013442CB1C9B21C4403F8011BA342FBD1AE
:10136800F0BC704714460346C3E700BF0000000006
:101378002DE9F84FC1F30A57A7F2FF360246132E9C
:101388000B4604460D4689468A46804625DC002ED3
:1013980057DB4FF6FF77C0F20F07374107EA010C1A
:1013A8005CEA000C1ED038A3D3E90023FEF782FFC5
:1013B80000220023FFF7C0FB58B1002D4FF00008B2
:1013C800C2BF4FF4801A4AFA06F606EB050A2AEA63
:1013D800070940464946BDE8F88F332E06DDB6F5C5
:1013E800806F46D010461946BDE8F88F4FF0FF3B96
:1013F800A7F2134C2BFA0CFB1BEA000FF2D022A326
:10140800D3E90023FEF756FF00220023FFF794FBE1
:101418000028DED0002D0DDD142E09D0C7F5866713
:101428004FF00108033708FA07F818EB040801D34E
:1014380005F1010A28EA0B08D14640464946BDE8AD
:10144800F88F11A3D3E90023FEF734FF002200230D
:10145800FFF772FB0028BCD0002D0EDB55EA04080C
:1014680008BFC146B5D04FF00009C846C3F6F079A9
:10147800AFE7FEF71FFFBDE8F88F4FF000084FF009
:101488000049A6E7AFF300809C7500883CE4377EEE
:1014980080B584B000AF7860396000F081F9034608
:1014A800FB603B68002B0BD03B68FA681A603B680E
:1014B80000225A603B6800229A603B680022DA608A
:1014C800FB6818461037BD4680BD00BF80B584B0A4
:1014D80000AF7860FFF730FEF8607A6844F6D353BF
:1014E800C1F26203A3FB02139B09BB6000BFFFF7B5
:1014F80023FE0246FB68D21ABB689A42F7D3002340
:1015080018461037BD4680BD80B483B000AF03468F
:10151800FB714FF46143CEF2000397F9072052099B
:10152800F97901F01F01012000FA01F143F82210B6
:101538000C37BD465DF8047B704700BF80B483B0AC
:1015480000AF0346FB714FF46143CEF2000397F9F5
:1015580007205209F97901F01F01012000FA01F171
:10156800203243F822100C37BD465DF8047B7047E3
:1015780080B582B000AF172000F0A4F903467B6065
:101588007B68002B02D01720FFF7D8FF7B6818462E
:101598000837BD4680BD00BF80B582B000AF786017
:1015A8007B68002B02D01720FFF7AEFF0837BD4637
:1015B80080BD00BF2DE9704F9046994682468B4604
:1015C800FFF7D6FF4FF40063C4F2010310224FF473
:1015D80040565A61C4F201064FF0000EBAF1000FEE
:1015E8000ED01BF80E30B38135894FF44054EA070A
:1015F800C4F20104F8D50EF1010ED645A389F0DB3B
:1016080000214FF440550E46C4F20105B8F1000F11
:101618000ED019F80130AB812C894FF44051E30703
:10162800C4F20101F8D5013646458B893146F0D11F
:101638004FF40063C4F2010310221A61FFF7ACFFF4
:101648000020BDE8708F00BF2DE9704F9046994685
:1016580082468B46FFF78CFF4FF40063C4F2010308
:1016680010224FF440565A61C4F201064FF0000EA2
:10167800BAF1000F0ED01BF80E30B38135894FF444
:101688004054EA07C4F20104F8D50EF1010ED6451C
:10169800A389F0DBB8F1000F16D04FF0000E4FF41D
:1016A800405576467246C4F20105AA812C894FF44A
:1016B8004051E307C4F20101F8D501368B8946454C
:1016C80009F80E30B646F0D14FF40063C4F20103B6
:1016D80010221A61FFF760FF0020BDE8708F00BF7D
:1016E80080B483B000AF03463960FB7197F90730C7
:1016F800002B0EDA4FF46D43CEF20003FA7902F0B4
:101708000F02111F3A68D2B21201D2B20B441A76F4
:101718000CE04FF46143CEF2000397F907103A68E2
:10172800D2B21201D2B20B4483F800230C37BD4663
:101738005DF8047B704700BF80B582B000AF786069
:101748007B68B3F1807F01D301231AE04EF21003C6
:10175800CEF200037A6822F07F42013A5A604FF0D5
:10176800FF300F21FFF7BCFF4EF21003CEF200034B
:1017780000229A604EF21003CEF2000307221A608C
:10178800002318460837BD4680BD00BF80B400AFAF
:101798004FF0FF331846BD465DF8047B704700BF25
:1017A80080B400AF40F2C013C2F200031B681846B1
:1017B800BD465DF8047B704780B500AF40F2081362
:1017C800C2F200031A6844F6D353C1F26203A3FBC2
:1017D80002139B091846FFF7AFFF0346002B00D002
:1017E800FEE74FF0FF300521FFF77AFF0023184688
:1017F80080BD00BF80B584B000AF00F033F820236F
:10180800BB812823FB7307F10C034FF44060C4F23B
:101818000100194604F08AFF0120052105F078F837
:1018280020237B6000233B7208237B720123BB7259
:101838003B1D184604F092FE4FF4407004F012FE6F
:1018480017233B700F237B700023BB700123FB70B1
:101858003B46184604F01AFE002318461037BD46CA
:1018680080BD00BF80B584B000AF0223BB812823B0
:10187800FB7307F10C034FF48050C4F201001946C2
:1018880004F054FF0220012105F042F802237B6096
:1018980000233B7208237B720123BB723B1D184651
:1018A80004F05CFE07233B700F237B700023BB70A2
:1018B8000123FB703B46184604F0E8FD1037BD468F
:1018C80080BD00BF80B485B000AF78600023FB7393
:1018D8000023BB604FF48063C4F201031A687B687D
:1018E8001340BB60BB68002B02D00123FB7301E0EF
:1018F8000023FB73FB7B18461437BD465DF8047B59
:10190800704700BF80B586B000AF05F083F84FF48C
:10191800803005F0DFF805F021F90346FB75FB7D03
:10192800002B42D0102004F0DFFE022004F0BCFEA1
:10193800002005F011FA002005F04EFA4FF48060FF
:1019480005F02AFA4FF4004005F066FA302005F059
:1019580083F94FF4C06005F09FF9012005F0BCF948
:1019680000BF3B2005F030FC0346002BF9D04FF4B4
:101978008030022105F04CF94FF480304FF4E0112B
:1019880005F014F9012005F033F900BF392005F0FE
:101998001BFC0346002BF9D0022005F0ADF900BF6F
:1019A80005F0CAF90346082BFAD13B46184605F05C
:1019B80053FA4FF48050012105F066FB4FF4804044
:1019C800012105F089FB7D20012105F05DFB002345
:1019D80018461837BD4680BD80B588B000AF0346AD
:1019E800FB804FF44050C4F2010005F087FC00234F
:1019F800BB814FF48273FB8100233B8200237B82EF
:101A08000023BB824FF40073FB82FB883B830023D7
:101A18007B830723BB8307F10C034FF44050C4F2C8
:101A28000100194605F0A6FC4FF44050C4F201002D
:101A3800012105F0E3FC2037BD4680BD80B586B0A6
:101A480000AF4FF44050C4F2010005F057FC0023EA
:101A5800BB804FF48273FB8000233B8100237B8192
:101A68000023BB814FF40073FB8110233B820023CA
:101A78007B820723BB823B1D4FF44050C4F2010018
:101A8800194605F077FCA0233B801823FB7003233D
:101A9800BB703B464FF40060C4F20100194604F0E5
:101AA80045FE40233B804823FB703B464FF40060D3
:101AB800C4F20100194604F039FE10233B801023BC
:101AC800FB700323BB703B464FF40060C4F2010077
:101AD800194604F02BFE4FF44050C4F201000021D7
:101AE80005F0ACFC4FF44050C4F20100012105F0B0
:101AF80085FC4FF40060C4F20100102104F0ECFEF4
:101B0800002318461837BD4680BD00BF80B582B097
:101B180000AF7D20012105F0B7FA4FF6FF73BB80B7
:101B28000023FB713B1D4FF40060C4F2010019460D
:101B380004F0FCFD3B1D4FF44060C4F2010019465F
:101B480004F0F4FD3B1D4FF48050C4F20100194627
:101B580004F0ECFD3B1D4FF4A050C4F201001946FF
:101B680004F0E4FD3B1D4FF4C050C4F201001946D7
:101B780004F0DCFD41F2C803BB801023FB71032392
:101B8800BB713B1D4FF48050C4F20100194604F0AC
:101B9800CDFD002318460837BD4680BD80B582B00C
:101BA80000AF0123BB801023FB710323BB713B1DD6
:101BB8004FF40060C4F20100194604F0B7FD4FF479
:101BC8000060C4F20100012104F094FE0123BB80EF
:101BD8000023FB710323BB713B1D4FF40060C4F26B
:101BE8000100194604F0A2FD4FF47A70FFF76EFC6D
:101BF8000837BD4680BD00BF80B584B000AF03463E
:101C0800FB800123FB60FB884FF48050C4F2010085
:101C1800194604F047FE0346002B01D00023FB6061
:101C2800FB6818461037BD4680BD00BF80B582B03E
:101C380000AF0346FB71FB79042B38D801A252F898
:101C480023F000BF611C0008711C0008811C0008FB
:101C5800931C0008A51C00084FF48050C4F2010032
:101C6800402104F047FE23E04FF48050C4F2010005
:101C7800802104F03FFE1BE04FF48050C4F20100C5
:101C88004FF4807104F036FE12E04FF48050C4F235
:101C980001004FF4007104F02DFE09E04FF480506C
:101CA800C4F201004FF4707104F024FE00E000BF9C
:101CB8000837BD4680BD00BF80B582B000AF03467F
:101CC800FB71FB79042B38D801A252F823F000BF2E
:101CD800ED1C0008FD1C00080D1D00081F1D000854
:101CE800311D00084FF48050C4F20100402104F077
:101CF800F3FD23E04FF48050C4F20100802104F08A
:101D0800EBFD1BE04FF48050C4F201004FF48071EA
:101D180004F0E2FD12E04FF48050C4F201004FF4E9
:101D2800007104F0D9FD09E04FF48050C4F20100BD
:101D38004FF4707104F0D0FD00E000BF0837BD46D5
:101D480080BD00BF80B500AFFFF7DCFDFFF7DEFE0A
:101D5800FFF732FD00F00EF8FFF74CFDFFF716FD18
:101D68000023184680BD00BF80B500AFFFF766FEB0
:101D780080BD00BF80B584B000AF0120012105F00F
:101D8800ABF942F6E063BB800023FB804FF6FF739C
:101D98003B8100237B8100233B733B1D4FF0804038
:101DA800194605F06BFB4FF08040002105F0F2FB6F
:101DB8000220012105F090F90C23BB801023FB8041
:101DC8004FF6FF733B8100237B8100233B733B1D50
:101DD8004FF48060C4F20000194605F04FFB4FF441
:101DE8008060C4F20000012105F0D4FB1037BD4625
:101DF80080BD00BF80B400AFBD465DF8047B70476E
:101E080080B48BB000AF78607B681B687B627B68AE
:101E18005B683B627B689B68FB617B68DB68BB61D6
:101E28007B681B697B617B685B693B617B689B693D
:101E3800FB607B68DB69BB60FEE700BF80B400AF76
:101E48001EF0040F0CBFEFF30880EFF309808169DF
:101E5800004A1047091E0008FEE700BF80B400AF23
:101E6800FEE700BF80B400AFFEE700BF80B400AF5C
:101E7800FEE700BF80B400AFBD465DF8047B704745
:101E880080B400AFBD465DF8047B704780B400AFF6
:101E9800BD465DF8047B704780B500AF012005F0B2
:101EA800E7F90346002B04D0012005F00DFA05F0F0
:101EB800CDF980BD80B400AF40F2C013C2F2000378
:101EC8001B685A1C40F2C013C2F200031A60BD46D8
:101ED8005DF8047B704700BF80B500AFAFF30080AA
:101EE8004FF4005004F0D0FB80BD00BF80B400AFB9
:101EF800BD465DF8047B704780B400AFBD465DF811
:101F0800047B704780B500AF04F0D6F9012004F0D7
:101F1800BBFB80BD80B582B000AF0023FB8002E030
:101F2800FB880133FB80FB88B3F5966FF8D302205A
:101F3800FFF762FE0346012B02D0022004F0A4FB47
:101F48000837BD4680BD00BF80B500AF04F0BAF9C0
:101F5800082004F099FB80BD80B500AF04F0B2F909
:101F6800202004F091FB80BD80B584B000AF03460B
:101F7800FB800023FB6040F22C13C2F20003002216
:101F880083F8682040F22C13C2F2000300225A772B
:101F980040F22C13C2F200030022DA6640F22C133E
:101FA800C2F20003002283F8552040F22C13C2F23B
:101FB800000300221A6740F22C13C2F20003002229
:101FC80083F8692040F22C13C2F2000300225A67FA
:101FD80040F22C13C2F2000300229A6700F000F9C5
:101FE800024640F22C13C2F200031A6040F22C138E
:101FF800C2F200031A684FF49873CDF6CA639A4286
:1020080002D04FF0FF33DAE0002000F03BFFFB88FE
:1020180003F00803002B08D0042000F05DFC024602
:1020280040F22C13C2F200031A6740F22C13C2F2DA
:1020380000031B6FDBB2002B09D002237B7207F170
:1020480009032D201221012200F05EFB05E040F279
:102058002C13C2F2000300221A67062000F03CFC91
:10206800024640F22C13C2F200035A60072000F027
:1020780033FC024640F22C13C2F200039A60FB883C
:1020880003F00203002B09D01C2000F025FC0246B7
:1020980040F22C13C2F200039A6105E040F22C13BF
:1020A800C2F2000300229A61FB8803F00103002BAF
:1020B80021D01E2000F010FC0346DBB203F01F0302
:1020C800DAB240F22C13C2F200031A7740F22C1352
:1020D800C2F200031B7F002B1AD147F6B413C0F6D7
:1020E80000031B7803F01F03DAB240F22C13C2F28C
:1020F80000031A770CE047F6B413C0F600031B7808
:1021080003F01F03DAB240F22C13C2F200031A776D
:10211800FB8803F00403002B18D00023FB6011E0B8
:10212800FB681033184600F0D7FB014640F22C122A
:10213800C2F20002FB6808339B0013445960FB6835
:102148000133FB60FB680B2BEADD12E00023FB6028
:102158000CE040F22C12C2F20002FB6808339B002C
:10216800134400225A60FB680133FB60FB680B2BA9
:10217800EFDDFB8803F40063002B02D000F01AFCAB
:102188000FE03620052100F02BFB03467B817B897D
:1021980023F400737B817B89362005211A4600F0E1
:1021A80037FB012000F06EFE0420002100F0F6FA53
:1021B800024640F22C13C2F200031A6200231846AA
:1021C8001037BD4680BD00BF80B400AF40F22C136D
:1021D800C2F200035B681846BD465DF8047B704791
:1021E80080B500AF0020002100F0D8FA0346184659
:1021F80080BD00BF80B582B000AF78607B682A20C0
:102208000B21012200F080FA7B685B681E20002108
:102218001A4600F00DFB0837BD4680BD80B483B078
:1022280000AF02460B46FA71BB71FB795A1EB979A9
:1022380047F67413C0F600035B5C5B00134440F27E
:102248002C12C2F2000208339B0013445B68184644
:102258000C37BD465DF8047B704700BF80B588B079
:1022680000AF78600B46FB700023FB770023BB7739
:102278007B681B78FB767B685B791A4647F6F81310
:10228800C0F6000333F81230BB837B685B785A1EB4
:1022980040F22C13C2F20003DA6640F22C13C2F2A9
:1022A8000003DB6EBB76FB7E042B02D0FB7E072B84
:1022B80001D1012300E000237B767B681A7840F285
:1022C8002C13C2F200031A737B68DB79002B0FD141
:1022D80040F22C13C2F200031B6A43F4800240F25E
:1022E8002C13C2F200031A62BB8BDB08BB830BE022
:1022F80040F22C13C2F200031B6A23F4800240F25E
:102308002C13C2F200031A627B681A7A40F22C136B
:10231800C2F200035A7340F22C13C2F200031A6A85
:102328007B681B7A1B0403F440331A4340F22C13D6
:10233800C2F200031A6240F22C13C2F200031B6AB5
:10234800042000211A4600F073FABB8B2E2042F6B7
:1023580004011A4600F05CFABB7E184600F00CFB3C
:10236800FA7E47F67413C0F600039B5C1A461346C0
:102378009B00134447F69412C0F6000213442B2026
:102388000721052200F0C0F92B200E21012247F673
:10239800B413C0F6000300F0B7F97A7E47F6B81315
:1023A800C0F60003134428200B21012200F0ACF9E9
:1023B800FA7E47F67413C0F600039B5C1A4647F68C
:1023C8007C13C0F6000353F8223028200C211A464B
:1023D80000F02EFA7B68DB7919467B689B791A46F0
:1023E80047F6C813C0F6000349000A4433F8123010
:1023F800272002211A4600F00BFABA7E47F6D413BA
:10240800C0F6000333F81230272004211A4600F0E2
:10241800FFF97B68DB79002B05D127200621642290
:1024280000F0F6F920E07B689B78042B0ED110238E
:10243800FB7327200621102200F0EAF907F10F03A9
:1024480027202621012200F05FF90DE02823BB7325
:1024580027200621202200F0DBF907F10E032720B0
:102468002621012200F050F9B97E7B68DB781A46F4
:1024780047F6D813C0F6000389000A4453F82230FF
:10248800272008211A4600F0D3F97B685B899AB2A5
:1024980041F241039A4207D07B685B899BB22720AF
:1024A80020211A4600F0B4F97B685B899BB2002BA7
:1024B80005D12720202141F2410200F0A9F947F671
:1024C800BC13C0F600031B6823200C211A4600F039
:1024D800AFF9BB7E47F6BC12C0F600025B0013449E
:1024E8009B88232004211A4600F092F97B689B7987
:1024F800002B10D07B68DB791A4647F6C413C0F668
:102508000003134421200021012200F0FDF80323D9
:10251800FB770123BB77FB7E03F00F02FB7E1B01D9
:10252800DBB21A437B685B789B0403F440231A43AD
:10253800FB7F1B0503F440131A43BB7F5B0403F4C2
:1025480000331A437B681B799B0503F0F8631A4331
:102558007B685B79DB0613437B611F2000217A6966
:1025680000F066F97B689A787B685B781343DBB286
:102578001B043B617B68DB795B031A463B691343A9
:1025880043F4004240F22C13C2F200031A6140F2F5
:102598002C13C2F200031B69082000211A4600F020
:1025A80047F9FB7803F00103002B07D040F22C1306
:1025B800C2F200031B7F184600F07CFEFB7803F094
:1025C8000203002B1DD040F22C13C2F200039A69BB
:1025D800BB7E1B0122FA03F39BB25B089BB2184631
:1025E80000F014F840F22C13C2F200039A69BB7E83
:1025F8001B0122FA03F39BB25B089BB2184600F05A
:102608001FF8002318462037BD4680BD80B582B02C
:1026180000AF0346FB8040F22C13C2F20003FA8895
:102628009A8240F22C13C2F200039B8A2E2041F6B4
:1026380004011A4600F0ECF80837BD4680BD00BF1B
:1026480080B582B000AF0346FB8040F22C13C2F283
:102658000003FA88DA8240F22C13C2F20003DB8A04
:10266800182000211A4600F0D3F80837BD4680BD6F
:1026780080B483B000AF0346FB7140F22C13C2F262
:1026880000039A69FB79013B1B0122FA03F39BB211
:1026980018460C37BD465DF8047B704710B5141812
:1026A800B4F5806F0B4606DC1146821E092000F047
:1026B8002BF8002010BD4FF0FF3010BD08B540F2D8
:1026C8002C13C2F200031A69104340EA8152002118
:1026D800082000F0ADF8002008BD00BF10B40C467B
:1026E80003461146112022465DF8044B00F032B82B
:1026F800034600211720052200F02CB803460021CC
:102708001520052200F026B800B583B0B9B17F299D
:1027180060F03F008DF8000085BF61F07F00C909B7
:102728008DF801108DF801008ABF8DF80210022083
:1027380003206946FEF73EFF03B05DF804FB60F036
:102748007F008DF8000069460120FEF733FF03B0D3
:102758005DF804FB00B583B0B9B17F2940F04000B3
:102768008DF8000085BF61F07F00C9098DF8011060
:102778008DF801008ABF8DF80210022003206946F7
:10278800FEF762FF03B05DF804FB8DF800006946B0
:102798000120FEF759FF03B05DF804FB00B50422E1
:1027A80083B080B289B20DEB0203FFF7D3FF20B1EB
:1027B8004FF0FF3003B05DF804FB9DF807009DF86B
:1027C80006309DF80520A0F5807003EB00209DF8E9
:1027D800043002EB002003EB002003B05DF804FB9B
:1027E80000B583B080B289B202226B46FFF7B2FF10
:1027F80020B14FF6FF7003B05DF804FB9DF80100AF
:102808009DF8003003EB002080B203B05DF804FBB4
:1028180030B583B01446150A89B202226B4680B2DD
:102828008DF800408DF80150FFF76EFF03B030BD02
:1028380070B582B04FEA122E1446160C150E89B2E6
:1028480004226B4680B28DF800408DF801E08DF8C7
:1028580002608DF80350FFF757FF02B070BD00BF4C
:1028680010B5002104460420FFF798FF84B94FF6FD
:10287800FE73CFF24703034040F22C14C2F2000467
:1028880023621A4604200021BDE81040FFF7D0BF9C
:102898004FF6016204F4FF73CFF2470243F00103DD
:1028A80002401343E8E700BF024602210320FFF776
:1028B800AFBF00BF024600210320FFF7A9BF00BF3A
:1028C8000346002101200822FFF71EBF034600210E
:1028D80001200822FFF73EBF30B583B002AC04F8F0
:1028E800080D050A6B46042102222D208DF801509F
:1028F800FFF70AFF03256B46062101222D208DF8DC
:1029080000500024FFF700FF6B46012206212D200E
:102918008DF80040FFF7F8FE0A212D20FFF73EFF53
:1029280003B030BD30B583B0002302AC04F8083DD5
:1029380002256B46022101222C20FFF7E5FE6B469B
:10294800294601222C208DF80050FFF7DDFE03B048
:1029580030BD00BF10B5042104463620FFF71EFF26
:1029680040F400620CB920F4006236200421BDE86E
:102978001040FFF75DBF00BF10B582B06D2202ABFB
:1029880003F8082D40F6060104466B462E20012266
:10299800FFF7BAFE2E2041F606012CB941F2076274
:1029A800FFF736FF02B010BD40F20762FFF730FFB5
:1029B80002B010BD30B583B0012402AB03F8084D56
:1029C80003256B460021022236208DF80150FFF7BF
:1029D8009BFE06214FF400422D20FFF719FF4FF40C
:1029E8007A70FEF773FD204600F04CFA002003B021
:1029F80030BD00BF70B582B0012402AB0326054686
:102A080003F8084D00216B460222354036208DF828
:102A18000160FFF779FE6A01224312212D20FFF79A
:102A2800F7FE204600F02EFA02B070BD10B5002166
:102A380004460420FFF7B2FE40F22C13C2F2000352
:102A480044B940F480221A6204200021BDE81040F5
:102A5800FFF7EEBE20F480221A6204200021BDE8B0
:102A68001040FFF7E5BE00BF40F22C13C2F200038E
:102A78001A6A38B9587742F48052042000211A6241
:102A8800FFF7D6BE012122F4805259770420002195
:102A98001A62FFF7CDBE00BF00B540F22C13C2F298
:102AA800000383B01A6A78B922F000521A6202ABA6
:102AB800120E03F8082D03216B4601220420FFF7AC
:102AC80023FE03B05DF804FB42F000521A62EEE701
:102AD80010B5002104461A20FFF760FEC4F3130462
:102AE800020D44EA02521A200021BDE81040FFF707
:102AF8009FBE00BF40F22C13C2F2000358679967CB
:102B0800704700BF2DE9704140F22C14C2F2000456
:102B1800627F002385B019460F2084F85A2084F874
:102B28005430FFF73BFE4205054603D5667F002E6D
:102B380000F0878015F4804646D0680541D515F425
:102B4800801640F0998031461020FFF749FE984BD7
:102B58008046314611200222FFF7FCFD637B002BE3
:102B680000F0CB80C8F3090840F22C1315F00802D6
:102B7800A4F85680C2F2000308D093F8581001F068
:102B8800200101F0FF00002900F0E68084F85520BC
:102B98004FF00008617F40F22C160223C2F20006B3
:102BA80084F85430002940F0AB8005F4DE4248EA4E
:102BB80002020F20FFF73CFEB36F13B106F1540079
:102BC800984705B0BDE8708115F0800168D115F40B
:102BD800003640F081804FF41042C2F227422A406A
:102BE800002AEED00F203146FFF722FE236A84F830
:102BF80069609B0040F1C58000F004FBEE0444BF0F
:102C0800082384F8543014D4280400F1BD80E90363
:102C180044BF092384F854300BD46A0144BF0A2303
:102C280084F8543005D4AB0240F1AE800B2384F80D
:102C38005430A36F002BC4D05E48984705B0BDE858
:102C4800708100F46063B3F5606F3FF473AF00F018
:102C5800F3F900F0D7FA236A05F0F8059B0000F1B4
:102C68008980A36F032284F85420002B3FF462AFBD
:102C780004F1540098475DE700F0DEF900F0C2FA6D
:102C8800236A40F22C109900C2F200005DD4836FD1
:102C9800032280F85420002B93D05430984790E7B3
:102CA800F8220F203146FFF7C3FD94F8552040F273
:102CB8002C13C2F2000342B15A7F83F8556022B93F
:102CC80093F869300BB100F0B7F9636F012284F80B
:102CD8005420002BB0D174E732460F20FFF7A8FD2F
:102CE800A36F042284F854200BB13248984700237C
:102CF80084F8693005B0BDE8708108F07F0833E7D3
:102D0800012632466B460F2003218DF80860FFF735
:102D180021FD9DF8003023F07F0203F04003B2EB61
:102D2800430F3BD0216A11F0005131D0A36F0BB192
:102D38002048984700F078F9A8B100F07DF900F034
:102D480061FA236A9A007FF53CAF00214FF4807244
:102D58000D20FFF75DFD34E783F8550083F869001F
:102D68004FF0080816E70321012202AB0D20FFF7F8
:102D7800CBFC26E731464FF480720D20FFF748FD63
:102D8800D8E600F059F937E7032384F8543050E7C0
:102D98004FF480720D20FFF73BFDC7E705F4C042F2
:102DA80048EA020200210F20FFF742FDBAE700BF00
:102DB800840100208001002070B5044682B014F020
:102DC80001066B464FF026002BD131460222FFF751
:102DD800C1FC9DF800309DF801E031462EF0150E3B
:102DE80023F0400626206B4602228DF801E08DF87C
:102DF8000060FFF789FCA30711D50F242A210122BF
:102E08006B4636208DF80040FFF77EFC00246B46A9
:102E180036202A2101228DF80040FFF775FC02B008
:102E280070BD00210222FFF795FC9DF8012002AB3E
:102E3800012142F0140203F8072D26200A46FFF765
:102E480063FC6B46022101223620FFF783FC9DF8C4
:102E580000606B4666F07B060221012236208DF861
:102E68000060FFF751FC01264FF0100E6B46282139
:102E7800022236208DF800E08DF80160FFF744FC4F
:102E8800B9E700BF10B582B004466B463620002172
:102E98000222FFF75FFC0D2C11D8DFE804F02807A9
:102EA80031101010103A491010565D1F9DF801207E
:102EB800002322F001028DF801208DF800306B46C6
:102EC800002101223620FFF71FFC01210A460DEBE5
:102ED80001033620FFF718FC02B010BD9DF8003042
:102EE80023F0300343F020038DF80030E7E79DF826
:102EF800003023F0030343F001038DF80030DEE7D0
:102F08009DF8003023F0030343F002038DF80030EE
:102F1800D5E79DF800209DF8013022F04C0242F0E0
:102F2800480263F07F038DF800208DF80130C6E772
:102F38009DF800209DF8013022F04C0203F07F0339
:102F48008DF800208DF80130B9E79DF8013043F085
:102F580002038DF80130B2E79DF8013023F0020337
:102F68008DF80130ABE700BF08B50020FFF78AFFF6
:102F7800BDE80840362004210022FFF749BC00BF05
:102F8800024601210A20FFF753BC00BF10B5830792
:102F980041BF40F22C13C2F20003012283F86920DA
:102FA80059BF022206238222862310F0010482B030
:102FB80017D002AC04F8083D00216B4601220D2011
:102FC800FFF7A2FB6B460F2003210122FFF7C2FB8C
:102FD8009DF8003003F0080303F0FF006BB902B05E
:102FE80010BD02AB03F8082D21466B4601220D20C7
:102FF800FFF78AFB204602B010BD6B460122002174
:1030080040240D208DF80040FFF77EFB0020FFF7DD
:10301800A1FC40F22C13C2F20003002283F86920BD
:103028004FF0FF30DBE700BF08B502210F20FFF7A4
:10303800D7FB00F0100008BD70B582B04023002116
:1030480002AC0E2004F8083DFFF7A8FB0646FEF781
:103058008FFA002105460A460E20FFF7E9FB6B466A
:10306800002101220D20FFF74FFB4FF6F872C2F244
:10307800274200210F20FFF7DBFB00F011F8324652
:1030880000210E20FFF7D4FB2846FEF785FA40F210
:103098002C13C2F20003002283F8692002B070BD2D
:1030A80000B585B001226B460F200321FFF752FBC4
:1030B8009DF8003023F07F0203F04003B2EB430F8A
:1030C80007D0012204AB03F8082D0D200321FFF7D8
:1030D8001BFB05B05DF804FB30B5044683B0002542
:1030E8008DF80050FFF7DCFFA4B129464FF4407279
:1030F8000D20FFF78DFB6B460F2003210122FFF700
:1031080029FB9DF8003003F0080303F0FF0053B9D2
:1031180003B030BD21464FF480720D20FFF778FBD5
:10312800204603B030BDFFF787FF29460D204FF436
:103138008072FFF76DFB4FF0FF30E9E770B582B0A2
:1031480004466B46042003210122FFF703FBACB9B8
:1031580040F22C14C2F20004226A9DF800506B461B
:1031680022F0805625F01005032101220420266252
:103178008DF80050FFF7C8FA02B070BD224640F241
:103188002C140C200021C2F20004FFF741FB226A34
:103198009DF800506B4642F0805645F01005E3E775
:1031A80070B506460D46FEF7E3F9002104460E20E9
:1031B800FFF7F4FA40EA06020DB920EA06020E20EB
:1031C8000021FFF735FB2046BDE87040FEF7E4B963
:1031D80030B583B0022302AC054604F8083D2F2021
:1031E8006B4600210122FFF78FFA45B101256B4696
:1031F8002A462F2000218DF80050FFF785FA03B0EA
:1032080030BD00BF10B582B002ACE02304F8083D21
:1032180003216B4601223620FFF776FAF0246B462D
:103228000321012236208DF80040FFF76DFA02B025
:1032380010BD00BF70B582B0002502AC04F8085D6F
:10324800FFF792FE29462A462C20FFF7E1FA6B4643
:10325800062101222C20FFF757FAFFF763FB6B4684
:10326800032101223620FFF775FA9DF800606B46AE
:103278000321012206F00F0636208DF80060FFF7C3
:1032880043FA4FF47A70FEF721F99DF800206B4657
:1032980062F00F040321012236208DF80040FFF769
:1032A80033FA40F22C13C2F2000383F8695002B0DB
:1032B80070BD00BF10B582B00DF1070304460E21A2
:1032C80001222B20FFF746FA9DF8072004F01F047F
:1032D80022F01F0214430DF107030E2101222B20B7
:1032E8008DF80740FFF710FA02B010BD000000008B
:1032F80080B588B000AF396013460246FA71BB71D9
:103308000023FB613868FDF733F902460B46104687
:1033180019464FF000024FF00003C4F21003FDF706
:103328007BF902460B4610461946FDF70FFC03468B
:103338007B617B69FF2B01DDFF237B61BB79012B5F
:1033480046D1FB79042B01D0072B20D1FA7947F617
:103358003423C0F600039B5C3B6102E0FB69013348
:10336800FB6147F6D022C0F6000239690B461B0103
:103378000B449B00F9690B4413441B781A467B697C
:103388009A42EBDBFB691C3BBB6100BF64E0FA7946
:1033980047F62C23C0F600039B5C3B6102E0FB6907
:1033A8000133FB6147F63C22C0F6000239690B463F
:1033B800DB000B449B000B44F9690B4413441B7856
:1033C8001A467B699A42EADBFB69173BBB6143E01B
:1033D800FB79042B01D0072B20D1FA7947F6342347
:1033E800C0F600039B5C3B6102E0FB690133FB61B3
:1033F80047F6C032C0F6000239690B461B015B1A5A
:103408009B005B1AF9690B4413441B781A467B69C5
:103418009A42EADBFB691E3BBB611DE0FA7947F67D
:103428002C23C0F600039B5C3B6102E0FB6901337F
:10343800FB6147F65833C0F600033A691A2101FBCD
:1034480002F1FA690A4413441B781A467B699A42C6
:10345800ECDBFB69113BBB61B869FDF7C9FC0346AE
:103468001846FDF785F802460B46C7E90223D7E957
:10347800020109A3D3E90023FDF7CEF802460B4663
:10348800C7E90223D7E90223104619462037BD466B
:1034980080BD00BFAFF300807B14AE47E17A843F64
:1034A80080B4ADF5097D00AF3B1D18603B4619603F
:1034B8003B461B68DBB287F810323B461B681B0A89
:1034C800DBB287F811323B461B681B0CDBB287F86E
:1034D80012323B461B681B0EDBB287F813320023FF
:1034E800A7F81C3219E0B7F81C32B7F81C22D1B281
:1034F80007F58672D154B7F81C32B7F81C2202F0CF
:103508000302391D09680A44117807F10C02D154E5
:10351800B7F81C320133A7F81C32B7F81C32FF2B5E
:10352800E1D90023A7F81A320023A7F81C3230E0AB
:10353800B7F81C3207F58672D35C1A46B7F81A3208
:1035480013449AB2B7F81C3207F10C01CB5C134450
:103558009BB2DBB2A7F81A32B7F81C3207F58672AD
:10356800D35C87F81932B7F81C32B7F81A2207F576
:103578008671895C07F58672D154B7F81A3207F557
:10358800867297F81912D154B7F81C320133A7F88C
:103598001C32B7F81C32FF2BCAD90023A7F81C32FB
:1035A8000023A7F81A32012387F81F3250E0B7F832
:1035B8001C320133A7F81C32B7F81C3207F58672A3
:1035C800D35C1A46B7F81A3213449BB2DBB2A7F899
:1035D8001A32B7F81C3207F58672D35C87F81932AD
:1035E800B7F81C32B7F81A2207F58671895C07F517
:1035F8008672D154B7F81A3207F5867297F81912FD
:10360800D154B7F81C3207F58672D25CB7F81A3273
:1036180007F58671CB5C134487F8183297F81F3288
:1036280097F8182207F58671895C97F81F2207F525
:103638000870024412F8102C4A40D2B207F50871FB
:103648000B4403F8142C97F81F32013387F81F3204
:1036580097F81F32032BAAD997F80C321A4697F815
:103668000D321B021A4497F80E321B041A4497F8BD
:103678000F321B061344C7F81432D7F81432184611
:1036880007F50977BD465DF8047B7047B0B586B08D
:1036980000AFF860B960C7E90023BB68002B0AD007
:1036A800D7E90023140A44EA03641D0A23467B6110
:1036B8007869FFF765FCFB68D3F8B042B868FFF794
:1036C8000BFD0346E21AFB68C3F8B0221837BD4663
:1036D800B0BD00BF0000000080B586B000AFC7E9EC
:1036E8000001D7E900010EA3D3E90023FDF7BEF8D6
:1036F80002460B46104619460BA3D3E90023FDF7F3
:10370800B5F802460B46C7E90423D7E90401FDF7DB
:1037180045FA0346FB60FB6818461837BD4680BD6E
:10372800FA48CE3B1835B13D0000000080842E4198
:1037380080B584B000AF78604FF000024FF000030E
:10374800C7E902237868FCF701FF02460B461046DA
:10375800194609A3D3E90023FCF75EFF02460B468E
:10376800C7E90223D7E90223104619461037BD4698
:1037780080BD00BFAFF30080FA48CE3B1835B13D9D
:1037880090B58DB000AF78607B68D3F88432FB6267
:10379800FB6A002B02DAFB6A5B42FB62F86AFFF7FE
:1037A800C7FF02460B46104619464FF000024FF07D
:1037B8000003C3F6D073FCF72FFF02460B46C7E998
:1037C8000623D7E906015CA3D3E90023FCF724FF0D
:1037D80002460B46C7E90423D7E904014FF000026B
:1037E8004FF00003CBF6E073FDF788F90346002B92
:1037F80009D1D7E9040152A3D3E90023FDF79CF9C5
:103808000346002B00D091E07B681C7AD7E90401BD
:10381800FDF7E4F902467B685B7A204611461A46B2
:10382800FFF766FD02460B46D7E90401FCF740FDA9
:1038380002460B46C7E904233B693B617B6923F0D9
:1038480000437B6140F2A813C2F20003D7E90401E8
:10385800C3E900017B68D3F820335A1C7B68C3F89E
:1038680020237B68D3F82433591C7A68C2F82413C0
:103878007A685733DB00D118D7E90423C1E900235C
:103888007B68D3F82433082B03D17B680022C3F864
:1038980024237B68D3F82833082B3FD14FF000024C
:1038A8004FF00003C7E908234FF000024FF0000370
:1038B800C7E902230023BB6211E07A68BB6A573369
:1038C800DB001344D3E90023D7E90801FCF7F2FC35
:1038D80002460B46C7E90823BB6A0133BB627B6813
:1038E800D3F82823BB6A9A42E7DC7B68D3F82833ED
:1038F8001846FCF72BFE02460B46D7E90801FCF7F1
:10390800B5FF02460B46C7E9082340F2B013C2F2DE
:103918000003D7E90801C3E9000106E07B68D3F892
:1039280028335A1C7B68C3F8282300BF3437BD46A8
:1039380090BD00BFAFF300800000001319DDB14156
:10394800000000000088D340B0B590B000AF7860A8
:103958007B6803F52473D3E90023C7E90E23D7E96D
:103968000E23002A73F1800106DBD7E90E2300320B
:1039780063F1FF03C7E90E23BB6B1846FFF7D8FEB8
:1039880002460B46104619464FF000024FF000035E
:10399800C3F6D073FCF740FE02460B46C7E908237E
:1039A800D7E9080188A3D3E90023FCF735FE0246CE
:1039B8000B46C7E90623D7E906014FF000024FF08E
:1039C8000003CBF6E073FDF799F80346002B09D105
:1039D800D7E906017EA3D3E90023FDF7ADF8034636
:1039E800002B00D0EAE07B681C7AD7E90601FDF7D6
:1039F800F5F802467B685B7A204611461A46FFF7BF
:103A080077FC02460B46D7E90601FCF751FC024653
:103A18000B46C7E90623BB69BB61FB6923F000437A
:103A2800FB6140F2A813C2F20003D7E90601C3E91B
:103A380000017B6803F54673D3E900231046194655
:103A4800D7E90623FCF736FC02460B46796801F5F0
:103A58004671C1E900237B68D3F820335A1C7B6880
:103A6800C3F820237B6803F54673D3E900457B68D8
:103A7800D3F820331846FCF769FD02460B4620466A
:103A88002946FCF7F3FE02460B46C7E9042340F239
:103A9800B813C2F20003D7E90401C3E900017B6847
:103AA800D3F82433591C7A68C2F824137A68573338
:103AB800DB00D118D7E90623C1E900237B6803F5A9
:103AC8005073D3E9002310461946D7E90623FDF7BA
:103AD80033F80346002B06D07B6803F55071D7E90D
:103AE8000623C1E900237B6803F54E73D3E900235D
:103AF80010461946D7E90623FDF700F80346002BC0
:103B080006D07B6803F54E71D7E90623C1E9002387
:103B18007B68D3F82433082B03D17B680022C3F8D1
:103B280024237B68D3F82833082B3FD14FF00002B9
:103B38004FF00003C7E90A234FF000024FF00003DB
:103B4800C7E9022300237B6311E07A687B6B573354
:103B5800DB001344D3E90023D7E90A01FCF7AAFBE9
:103B680002460B46C7E90A237B6B01337B637B68FC
:103B7800D3F828237B6B9A42E7DC7B68D3F8283399
:103B88001846FCF7E3FC02460B46D7E90A01FCF7A6
:103B98006DFE02460B46C7E90A2340F2B013C2F293
:103BA8000003D7E90A01C3E9000106E07B68D3F8FE
:103BB80028335A1C7B68C3F8282300BF4037BD460A
:103BC800B0BD00BFAFF300800000001319DDB141A4
:103BD800000000000088D34080B586B000AF786050
:103BE800396000233B7300237B730023BB730023DE
:103BF800FB7300233B7400237B740023BB740023F6
:103C0800FB747B68D3F8A0325A1C7B68C3F8A022E7
:103C18000023FB7533E0FB7D6C33DB007A681344CB
:103C28000433184639680822FDF7CAFA0346002B00
:103C380021D0FB7D6C33DB007A6813441A1D07F131
:103C48000C03104619460822FDF7BAFA0346002B62
:103C580012D1FB7D6C33DB007A68134404331846B9
:103C680039680822FDF7DEFAFB7D0133DAB27B689A
:103C780083F8622306E005E0FB7D0133FB75FB7DDD
:103C8800002BC8D0002318461837BD4680BD00BF9A
:103C980080B400AF40F2C813C2F20003D3F8503327
:103CA800002B08D040F2C813C2F200030022C3F868
:103CB8005023012300E000231846BD465DF8047B2D
:103CC800704700BF80B400AF40F2C813C2F20003CF
:103CD80093F860331846BD465DF8047B704700BF13
:103CE80080B582B000AF00237B6040F2C813C2F2F7
:103CF80000037A6840F6082101FB02F2134460339E
:103D080000225A6040F2C813C2F200037A6840F6F3
:103D1800082101FB02F2134403F50E7300221A7105
:103D28000120FFF755FA40F2C813C2F200037A687F
:103D380040F6082101FB02F2134403F50E7300223A
:103D48001A7140F2C813C2F200037A6840F60821DB
:103D580001FB02F2134403F54A73FF221A7140F281
:103D6800C813C2F200037A6840F6082101FB02F288
:103D7800134403F54A7300221A6040F2C813C2F2D2
:103D880000037A6840F6082101FB02F2134403F5A8
:103D9800487300225A6040F2C813C2F200037A68DE
:103DA80040F6082101FB02F2134403F528730022B0
:103DB8005A6040F2C813C2F200037A6840F608213C
:103DC80001FB02F2134403F52A7300221A6040F241
:103DD800C813C2F200037A6840F6082101FB02F218
:103DE800134403F52A7300225A6040F2C813C2F242
:103DF80000037A6840F6082101FB02F2134403F538
:103E08002C7300221A6040F2C813C2F200037A68C9
:103E180040F6082101FB02F2134403F546714FF006
:103E280000024FF00003C1E9002340F2C813C2F2B8
:103E380000037A6840F6082101FB02F2134403F5F7
:103E4800487300221A6040F2C813C2F200037A686D
:103E580040F6082101FB02F2134403F54E714FF0BE
:103E680000024FF00003C1E9002340F2C813C2F278
:103E780000037A6840F6082101FB02F2134403F5B7
:103E880050714FF000024FF48043C4F28F03C1E930
:103E980000230837BD4680BD80B582B000AF00233F
:103EA8007B6040F2C813C2F200037A6840F608212A
:103EB80001FB02F2134403F51E7300221A7040F24C
:103EC800C813C2F200037A6840F6082101FB02F227
:103ED800134403F51C7300225A7140F2C813C2F24E
:103EE80000037A6840F6082101FB02F2134403F547
:103EF800487300225A6040F2C813C2F200037A687D
:103F080040F6082101FB02F2134403F54A7300222C
:103F18001A6041F60700FEF727F838600320FEF71D
:103F28004BFF3B68002B02D04FF0FF338BE0FFF7CD
:103F3800D7FE40F2C813C2F200037A6840F608219F
:103F480001FB02F2134403F50E734DF6CA62DA80E0
:103F580040F2C813C2F200037A6840F6082101FB58
:103F680002F2134403F51C7300221A7140F2C813BD
:103F7800C2F200037A6840F6082101FB02F21344FA
:103F880003F51C7300225A7040F2C813C2F20003F2
:103F98007A6840F6082101FB02F2134403F51C730A
:103FA80000229A7040F2C813C2F200037A6840F601
:103FB800082101FB02F2134403F51E7300225A7014
:103FC80040F2C813C2F200037A6840F6082101FBE8
:103FD80002F2134403F51E7300229A7001F03AF8B6
:103FE80040F2C813C2F200037A6840F6082101FBC8
:103FF80002F21344183300229A717B6840F60822B3
:1040080002FB03F303F50C7240F2C813C2F200037B
:1040180013441846FEF75AFC40F67043C2F20003F8
:104028007A68002143F8221040F2C813C2F2000354
:104038007A6840F6082101FB02F2134403F558732D
:1040480000221A70002318460837BD4680BD00BFFD
:1040580080B500AFFEF7C4F80346184680BD00BF20
:1040680080B586B000AF47F60812C0F600023B469E
:104078001068516803C312891A8000233B61032327
:10408800FB6000237B613A7840F2C813C2F2000358
:10409800396940F6082000FB01F10B4408331A7017
:1040A800FA7840F2C813C2F20003396940F60820D2
:1040B80000FB01F10B4408335A71FA7840F2C81337
:1040C800C2F20003396940F6082000FB01F10B44F5
:1040D80008331A717A7840F2C813C2F200033969BA
:1040E80040F6082000FB01F10B4408335A70BA78F7
:1040F80040F2C813C2F20003396940F6082000FBF9
:1041080001F10B440833DA713A7940F2C813C2F26C
:104118000003396940F6082000FB01F10B4408331D
:104128009A707A7940F2C813C2F20003396940F6EE
:10413800082000FB01F10B440833DA70BA7940F229
:10414800C813C2F20003396940F6082000FB01F1E8
:104158000B4408339A7140F2C813C2F200033A695B
:1041680040F6082101FB02F21344103300221A70B2
:104178003A8940F2C813C2F20003396940F60820B0
:1041880000FB01F10B4410335A8040F2C813C2F20D
:1041980000033A6940F6082101FB02F21344083390
:1041A800DB79022B0DD140F2C813C2F200033A6941
:1041B80040F6082101FB02F21344103301225A7021
:1041C8000CE040F2C813C2F200033A6940F6082135
:1041D80001FB02F21344103300225A703B6940F687
:1041E800082202FB03F303F1080240F2C813C2F2EB
:1041F80000031A44FB68DBB210461946FEF72EF896
:104208003B78194647F63C42C0F600020B465B0075
:104218000B449B0013441A7840F2C813C2F20003FF
:10422800396940F6082000FB01F10B4410331A717C
:104238007A7840F2C813C2F20003396940F60820C0
:1042480000FB01F10B4408331B7810461946FDF7B3
:10425800E5FF78617B69002B03D07B69B3F1FF3FF1
:104268000FD13B7819467B78581E47F63C42C0F67A
:1042780000020B465B000B4403449B0013445B683D
:104288007B6140F2C813C2F200033A6940F6082184
:1042980001FB02F2134410335B78012B0DD140F27D
:1042A800C813C2F200033A6940F6082101FB02F282
:1042B800134410337A699A6018E07B69FB72FA7AC2
:1042C800FB7A1B021A43FB7A1B041A43FB7A1B0670
:1042D80013431A4640F2C813C2F20003396940F684
:1042E800082000FB01F10B4410339A6040F2C81318
:1042F800C2F200033A6940F6082101FB02F21344B6
:1043080010335B781846FEF791FB3B6940F60822AC
:1043180002FB03F303F1100240F2C813C2F20003D8
:10432800134404331846FDF765FFFB6803F00203E6
:10433800002B32D17B785A1E47F63843C0F600036B
:1043480033F8122040F2C813C2F20003396940F66C
:10435800082000FB01F10B4418339A8040F2C8137F
:10436800C2F200033A6940F6082101FB02F2134445
:1043780018339B881846FEF749F940F2C813C2F271
:1043880000033A6940F6082101FB02F2134418338E
:104398009B881846FEF754F952E07B781846FEF7DA
:1043A80067F903465B089AB240F2C813C2F20003E9
:1043B800396940F6082000FB01F10B4418339A8054
:1043C80040F2C813C2F200033A6940F6082101FB23
:1043D80002F2134418339B88002B31D17B785A1E84
:1043E80047F63843C0F6000333F8122040F2C813EA
:1043F800C2F20003396940F6082000FB01F10B44C2
:1044080018339A8040F2C813C2F200033A6940F6A2
:10441800082101FB02F2134418339B881846FEF763
:10442800F5F840F2C813C2F200033A6940F60821D1
:1044380001FB02F2134418339B881846FEF700F973
:104448003B79042B08D12020FDF7C6FA0020FEF79F
:10445800D1FA0820FDF7C0FA1837BD4680BD00BF65
:1044680080B485B000AF786039600023FB6040F20B
:10447800C813C2F20003FA6840F6082101FB02F2F1
:10448800134420337A685A6040F2C813C2F200031A
:10449800FA6840F6082101FB02F2134428333A680F
:1044A8001A601437BD465DF8047B704780B483B04A
:1044B80000AF40F2A813C2F20003D3E90023C7E912
:1044C8000023D7E90023104619460C37BD465DF88E
:1044D800047B704780B582B000AF78607B685B6E04
:1044E8005A1C7B685A667B6800225A607B6893F87E
:1044F8007432002B08D07B6893F87432022B03D8EF
:104508007B6806221A7009E07B6808221A7000206E
:10451800FEF714FE7B68002283F87222FEF78CFDFA
:104528000837BD4680BD00BF80B582B000AF786057
:104538000B46FB707B6893F87232002B1CD07B68AB
:1045480093F87532FA789A4216D17B689B78062BD5
:1045580003D10020FEF7F2FD0AE07B689B780C2B64
:1045680006D11820FEF77CF97B68012283F8202009
:104578007B68002283F872220837BD4680BD00BFE1
:10458800B0B5F4B022AF3B1D18600023C7F8403126
:10459800002387F8A030002387F8A130002387F88C
:1045A800A230002387F8A330002387F8A4303B1DEE
:1045B8001B681B7887F8473140F2C813C2F2000322
:1045C800D7F8402140F6082101FB02F2134403F515
:1045D8001C731B78002B24D0062387F8473140F240
:1045E800C813C2F20003D7F8402140F6082101FBA6
:1045F80002F2134403F51C7300221A7007F1A80392
:10460800184600F023FB694607F1B80288230846DC
:1046180011461A46FCF706FE07F1A8030FCB00F077
:1046280035FB97F84731012B40F0908007F1A00344
:104638001846FEF75DF897F8A0301A4697F8A130AB
:104648001B021A4497F8A2301B041A4497F8A330A7
:104658001B061A4407F108031A6197F8A430DAB266
:104668004FF0000307F10801C1E9022307F108032D
:10467800D3E902231500002407F10803C3E9024522
:1046880007F10803D3E9020107F108031B691A4679
:104698004FF00003121843EB010307F10801C1E9C9
:1046A800022397F8A4301A0607F108031B691B0AAE
:1046B8001A4407F108035A6140F2C813C2F2000312
:1046C800D7F8402140F6082101FB02F2134403F514
:1046D8001E7300225A7007F1080300225A8007F15E
:1046E800080301221A7007F108031A7807F1080372
:1046F8005A7007F10804694604F110028823084635
:1047080011461A46FCF78EFD94E80F0000F0BEFA39
:1047180040F2C813C2F20003D7F8402140F608213E
:1047280001FB02F2134403F528735B685A1C40F23C
:10473800C813C2F20003D7F8401140F6082000FB66
:1047480001F10B4403F528735A6020E097F84731CC
:10475800062B1CD107F1080300225A8007F1080331
:1047680006221A7007F108031A7807F108035A702D
:1047780007F10804694604F1100288230846114627
:104788001A46FCF74FFD94E80F0000F07FFA07F592
:10479800A477BD46B0BD00BFB0B5CEB022AF78603B
:1047A8000023C7F8A830002387F8A030002387F833
:1047B800A130002387F8A230002387F8A330002314
:1047C80087F8A430002387F8AF30002387F8A73094
:1047D8007B681B78022B40F0A0817B685A7840F2F6
:1047E800C813C2F20003D7F8A81040F6082000FB4F
:1047F80001F10B4403F51C731A70022387F8AF30DC
:104808007B685B887B817B681B79412B26D0412B99
:1048180002DC022B19D041E0612B1FD0C52B3DD102
:104828007B685B880C2B03D1072387F8AF300BE03C
:104838007B685B88122B03D1072387F8AF3003E02E
:10484800632387F8AF302DE02CE07B685B88052B6D
:1048580003D1052387F8AF3024E023E07B685B8829
:104868007F2B02D9632387F8AF307B685B7903F02D
:10487800CC03882B03D1092387F8A7300DE07B6888
:104888005B7903F0CC03CC2B03D1152387F8A73031
:1048980003E00F2387F8A73004E003E0632387F8D9
:1048A800AF3000BF97F8AF30052B07D097F8AF307F
:1048B800072B03D097F8AF30022B45D107F1A0039F
:1048C8001846FDF71BFF97F8A0301A4697F8A13055
:1048D8001B021A4497F8A2301B041A4497F8A33015
:1048E8001B061344BB6197F8A430DAB24FF00003FB
:1048F800C7E90423D7E9042315000024C7E90445C0
:10490800D7E90401BB691A464FF00003121843EBBC
:104918000103C7E9042397F8A4301A06BB691B0AE8
:104928001344FB617B685B8807F108021832104664
:1049380019460022FDF7D2FEFEF776FB0346002B50
:1049480002D0032387F8AF3097F8AF303B723B7A39
:104958007B7297F8AF30022B59D140F2C813C2F2DC
:104968000003D7F8A82040F6082101FB02F21344FF
:1049780003F51E7301225A7040F2C813C2F20003F5
:10498800D7F8A82040F6082101FB02F2134403F5EA
:104998001C731B78002B0ED1694607F11802882377
:1049A800084611461A46FCF73DFC07F108030FCBF1
:1049B80000F06CF90DE0694607F1180288230846F3
:1049C80011461A46FCF72EFC07F108030FCB00F03E
:1049D80017F940F2C813C2F20003D7F8A82040F62E
:1049E800082101FB02F2134403F52A731B685A1CC1
:1049F80040F2C813C2F20003D7F8A81040F6082006
:104A080000FB01F10B4403F52A731A605EE097F886
:104A1800AF30052B2BD1694607F1180288230846C9
:104A280011461A46FCF7FEFB07F108030FCB00F00E
:104A38002DF940F2C813C2F20003D7F8A82040F6B7
:104A4800082101FB02F2134403F52A731B685A1C60
:104A580040F2C813C2F20003D7F8A81040F60820A5
:104A680000FB01F10B4403F52A731A602EE097F856
:104A7800AF30072B2AD1694607F118028823084668
:104A880011461A46FCF7CEFB07F108030FCB00F0DE
:104A9800FDF840F2C813C2F20003D7F8A82040F688
:104AA800082101FB02F2134403F52A731B685A1C00
:104AB80040F2C813C2F20003D7F8A81040F6082045
:104AC80000FB01F10B4403F52A731A6097F8AF3025
:104AD800632B67D140F2C813C2F20003D7F8A820AD
:104AE80040F6082101FB02F213441833DB79002B4E
:104AF80058D1D7F8A83040F6082202FB03F240F25A
:104B0800C813C2F200031344184600214FF00002F4
:104B18004FF00003FEF7BAFD44E07B681B78042BD6
:104B28001ED104233B723B7A7B7200237B814FF0BA
:104B380000024FF00003C7E904230023BB610023F0
:104B4800FB61694607F118028823084611461A4690
:104B5800FCF768FB07F108030FCB00F097F821E09A
:104B680040F2C813C2F20003D7F8A82040F6082183
:104B780001FB02F2134418339B79002B12D1D7F8AA
:104B8800A83040F6082202FB03F240F2C813C2F232
:104B980000031344184600214FF000024FF00003B1
:104BA800FEF774FDB037BD46B0BD00BF80B483B01A
:104BB80000AF00237B6040F2C813C2F200037A689A
:104BC80040F6082101FB02F2134403F6F8139B7820
:104BD800194640F2C813C2F200037A68982000FB15
:104BE80001F140F6082000FB02F20A44134403F5E1
:104BF8005C731B7818460C37BD465DF8047B70471C
:104C080084B080B582B000AF07F1100C8CE80F00BB
:104C180000237B6040F2C813C2F200037A6840F6B2
:104C2800082101FB02F2134403F51663194607F144
:104C380010029823084611461A46FCF7F3FA08377B
:104C4800BD46BDE8804004B0704700BF80B584B061
:104C580000AF78600023FB607A6840F2C813C2F2A4
:104C68000003F96840F6082000FB01F10B4403F546
:104C7800166311461A469823084611461A46FCF749
:104C8800D1FA78681037BD4680BD00BF84B080B5C2
:104C980082B000AF07F1100C8CE80F0000237B6096
:104CA8003B7CFB7000233B7440F2C813C2F2000344
:104CB8007A6840F6082101FB02F2134403F6F81360
:104CC8005B78194640F2C813C2F200037A6898204C
:104CD80000FB01F140F6082000FB02F20A441344ED
:104CE80003F55C73194607F110029823084611462C
:104CF8001A46FCF797FA40F2C813C2F200037A6822
:104D080040F6082101FB02F2134403F6F8135B781E
:104D1800194640F2C813C2F200037A68982000FBD3
:104D280001F140F6082000FB02F20A44134403F59F
:104D38005C73FA781A7040F2C813C2F200037A68FA
:104D480040F6082101FB02F2134403F6F8135B78DE
:104D58000133DAB240F2C813C2F20003796840F6B0
:104D6800082000FB01F10B4403F6F8135A7040F2D7
:104D7800C813C2F200037A6840F6082101FB02F268
:104D8800134403F6F8135B780A2B0DD140F2C813CD
:104D9800C2F200037A6840F6082101FB02F21344CC
:104DA80003F6F81300225A700837BD46BDE8804064
:104DB80004B0704780B584B000AF78600023FB6012
:104DC80040F2C813C2F20003FA6840F6082101FB5A
:104DD80002F2134403F6F8131B78BB6040F2C813C1
:104DE800C2F20003B968FA68982000FB01F140F6A6
:104DF800082000FB02F20A44134403F55C731B7895
:104E0800002B10D140F6D833C2F2000300221A70EA
:104E180040F6D833C2F2000300225A7040F6D83365
:104E2800C2F2000312E140F2C813C2F20003B968EB
:104E3800FA68982000FB01F140F6082000FB02F216
:104E48000A44134403F55C735A7840F6D833C2F227
:104E580000035A7040F2C813C2F20003B968FA6836
:104E6800982000FB01F140F6082000FB02F20A44FA
:104E7800134403F55C735A8840F6D833C2F2000332
:104E88005A8040F2C813C2F20003B968FA68982041
:104E980000FB01F140F6082000FB02F20A4413442B
:104EA80003F55E73D3E9000140F6D833C2F200037C
:104EB800C3E9020140F2C813C2F20003B968FA68F4
:104EC800982000FB01F140F6082000FB02F20A449A
:104ED800134403F560731A6840F6D833C2F200032E
:104EE8001A6140F2C813C2F20003B968FA68982040
:104EF80000FB01F140F6082000FB02F20A441344CB
:104F080003F560735A6840F6D833C2F200035A6159
:104F1800BB68982202FB03F2FB6840F6082101FBFC
:104F280003F3134403F5627240F2C813C2F200039C
:104F38001A4440F6D833C2F2000303F118017F2364
:104F4800084611461A46FCF76DF940F2C813C2F23A
:104F58000003B968FA68982000FB01F140F60820C0
:104F680000FB02F20A44134403F55C731A7840F616
:104F7800D833C2F200031A7040F2C813C2F2000319
:104F8800B968FA68982000FB01F140F6082000FB98
:104F980002F20A44134403F55C7300221A7040F2CB
:104FA800C813C2F20003FA6840F6082101FB02F2B6
:104FB800134403F6F8131B780133DAB240F2C8132E
:104FC800C2F20003F96840F6082000FB01F10B4427
:104FD80003F6F8131A7040F2C813C2F20003FA6815
:104FE80040F6082101FB02F2134403F6F8131B787C
:104FF8000A2B0DD140F2C813C2F20003FA6840F63A
:10500800082101FB02F2134403F6F81300221A7078
:1050180040F2C813C2F20003FA6840F6082101FB07
:1050280002F2134403F6F8131A7840F2C813C2F2D6
:105038000003F96840F6082000FB01F10B4403F671
:10504800F8139A7040F6D833C2F2000318461037A6
:10505800BD4680BD80B582B000AF00237B600023D1
:105068003B6000237B6018E07B68982202FB03F218
:105078003B6840F6082101FB03F3134403F55C7217
:1050880040F2C813C2F200031344184600219822C4
:10509800FCF71CF97B6801337B607B68092BE3DD37
:1050A80040F2C813C2F200033A6840F6082101FB37
:1050B80002F2134403F6F81300225A7040F2C813A0
:1050C800C2F200033A6840F6082101FB02F21344D9
:1050D80003F6F81300221A7040F2C813C2F2000354
:1050E8003A6840F6082101FB02F2134403F6F8136C
:1050F80000229A700837BD4680BD00BF80B485B0D5
:1051080000AF78600023FB6040F67043C2F20003F2
:10511800FA68796843F822101437BD465DF8047BB5
:10512800704700BF90B5CDB022AF0023C7F89C30C0
:105138000023C7F8A430FFF739FDC7F8A0001BE02B
:1051480040F67043C2F20003D7F89C2053F822209F
:10515800D7F89C3040F6082101FB03F140F2C81350
:10516800C2F200030B441846D7F8A0109047C7F8BE
:10517800A4000023C7F8A030D7F8A430002BDFD054
:10518800D7F8A430022B1BD140F2C813C2F2000397
:10519800D7F89C2040F6082101FB02F2134403F5DE
:1051A8001E7300225A7040F2C813C2F20003D7F8E7
:1051B8009C2040F6082101FB02F2134400225A60A9
:1051C80040F2C813C2F20003D7F89C2040F6082129
:1051D80001FB02F2134403F51E739B78012B44D1A3
:1051E80040F2C813C2F20003D7F89C2040F6082109
:1051F80001FB02F2134403F51E735B78002B34D1D4
:1052080040F2C813C2F20003D7F89C2040F60821E8
:1052180001FB02F2134403F51E735C68FCF7C0FA45
:1052280003469C4221D240F2C813C2F20003D7F8C9
:105238009C2040F6082101FB02F2134403F51E737B
:1052480000229A7000237B8004233B7084237B70A8
:10525800694607F110028823084611461A46FBF7EB
:10526800E1FF3B460FCBFFF711FD00231846AC3793
:10527800BD4690BD80B483B000AF786040F2C813DB
:10528800C2F200037A68C3F8FC290C37BD465DF802
:10529800047B704780B596B000AF786039607B6852
:1052A8001B780C2B00F2BD8401A252F823F000BF3A
:1052B800ED5200082B5C0008DD5300082B5C000849
:1052C8002B5C00082B5C0008415500087956000843
:1052D80033570008515700082B5C00082B5C000866
:1052E800EF5300087B6893F830321A467B6893F8CE
:1052F80031321B029BB21344A7F84A300020FDF755
:10530800AFFA7B68002283F820207B6803F50C73D2
:105318001846FDF7D5FA7B68B3F83E321846FDF714
:10532800C3FA7B68B3F83E32DAB27B6883F855215A
:105338007B68B3F83E321B0A9BB2DAB27B6883F80B
:1053480056217B68B3F83E32DAB27B6883F8C42111
:105358007B68B3F83E321B0A9BB2DAB27B6883F8EB
:10536800C521B7F84A301846FDF7A4FA7B6803F25E
:105378005F127B6803F50C73104619460222FBF78F
:1053880051FF7B6803F5E4727B6803F50C731046E4
:1053980019460222FBF746FF7B6801229A777B6851
:1053A8009B7F1846FDF778FB0020FDF75DFB00208A
:1053B800FDF7C4FE7B68002283F861237B6809221D
:1053C8001A700020FDF788FE7B68012283F86023AD
:1053D80000F028BC7B685A787B681A707B680022CA
:1053E8005A7000F01FBC7B68202283F861217B681B
:1053F800B3F83832DAB27B6883F862217B68B3F895
:1054080038321B0A9BB2DAB27B6883F863217B6867
:10541800002283F864217B68002283F865217B6879
:10542800412283F852217B688C2283F853217B68C0
:1054380093F83C325A1CD1B27A6882F83C127A68E6
:1054480082F854317B68022283F8712216200021E9
:10545800FDF734F97B681B6E1846FDF791FD7B68F4
:1054680093F8713243F00103DBB21846FDF78EFD65
:105478000346002B11D07B6809221A700020FDF723
:105488002BFE7B68002283F871227B68D3F8AC324C
:105498005A1C7B68C3F8AC2213E07B6893F854214C
:1054A8007B6883F875227B6803F5A9731620194673
:1054B8000022FDF7F3F87B6807221A707B68012247
:1054C8005A607B68B3F83832DAB27B6883F8C62151
:1054D8007B68B3F838321B0A9BB2DAB27B6883F870
:1054E800C7217B68502283F8CA217B68552283F83C
:1054F800CB217B68412283F8C1217B68882283F80D
:10550800C2217B6893F83C325A1CD1B27A6882F87F
:105518003C127A6882F8C3317B6803F2C1130D200C
:1055280019461E22FDF7BAF87B680C229A707B6830
:10553800002283F8722275E37B6893F87432002B9B
:1055480023D17B686A2283F8CA217B68D3F8843226
:10555800DAB27B6883F8CB217B68D3F884321B0AE4
:10556800DAB27B6883F8CC217B68D3F884321B0CD1
:10557800DAB27B6883F8CD217B68D3F884321B0EBE
:10558800DAB27B6883F8CE2107E07B6893F8C331F1
:10559800013BDAB27B6883F8C3217B681022A3F849
:1055A8003A227B68B3F83E32DAB27B6883F8C421CA
:1055B8007B68B3F83E321B0A9BB2DAB27B6883F889
:1055C800C5217B68412283F8C1217B6893F8C131EA
:1055D80043F02003DAB27B6883F8C1217B68882214
:1055E80083F8C2217B6893F83C325A1CD1B27A689E
:1055F80082F83C127A6882F8C3317B68022283F809
:1056080071227B68012283F872227B68B3F83A32F0
:1056180018460021FDF752F87B6893F87132184656
:10562800FDF7B4FC7B6893F8C3217B6883F8752287
:105638007B68B3F83A227B6803F2C1131046194617
:105648000022FDF72BF87B6807221A707B68062278
:105658009A707B6893F874320133DAB27B6883F806
:1056680074227B6800221A667B6801225A60D9E29C
:105678000020FFF79FFB78647B6C1B78012B19D007
:105688007B6C1B78042B03D17B68012283F8802272
:105698007B6C1B78052B09D17B68002283F871226B
:1056A8007B6C9B7E78681946FEF73EFF7B6801227B
:1056B8005A60B7E27B6800225A607B689B78042BAB
:1056C80009D17B6802225A607B6803225A707B6882
:1056D80002221A70A6E27B6893F88032002B07D06A
:1056E8007868FEF7F7FE7B68002283F8802299E24B
:1056F8007B689B780C2B03D10F201E21FCF7DEFF63
:105708007B6C1A697B68C3F868227B6809221A7067
:105718007B6893F87132002B02D10020FDF7DCFC86
:105728007B68002283F871227CE2786800214FF0C0
:1057380000024FF00003FDF7A9FF7B6809221A70E9
:105748003B68002B00D16DE23B68072B00F26782B3
:1057580001A252F823F000BF155C0008275C00087E
:1057680053580008275C0008035C00082B58000801
:10577800155C0008815700080120FFF71BFB3864FF
:105788003B6C1A3378681946FEF726FA7B6893F85B
:105798006133002B3BD17B6893F861336C33DB00BA
:1057A8007A6813441A1D3B6C1A33104619460822AE
:1057B800FBF706FD0346002B29D1FCF705FD034640
:1057C8009BB2DBB29AB27B68A3F838227B68B3F845
:1057D80038321B029AB23B6C9B7E13449AB27B68A8
:1057E800A3F838223B6C5A697B68DB6C1A447B68E7
:1057F8001A667B6803F257123B6C1A331046194637
:105808000822FBF70FFD7B680C221A7008E27B6800
:1058180009221A700020FDF75FFC7B6800225A609D
:10582800FEE10220FFF7C6FAF863FB6B9B7E7868FF
:105838001946FEF779FE7B6809221A700020FDF7E9
:105848004BFC7B6800225A60EAE10320FFF7B2FABA
:10585800B86300233B7400237B740023BB740023CC
:10586800FB7400233B7500237B750023BB75002365
:10587800FB7500237B6500233B6500237B637B6806
:10588800002283F87922BB6B5B7E8C2B32D08C2B69
:1058980002DC882B43D057E0C82B16D0CC2B53D131
:1058A800BB6B253307F11002104619460822FBF797
:1058B800B9FCBB6B93F82D303B65BB6B2D33FB6498
:1058C80008237B6315233B633EE0BB6B1F3307F163
:1058D8001002104619460822FBF7A4FCBB6B93F88C
:1058E80027303B65BB6B2733FB6408237B630F239F
:1058F8003B6329E0BB6B253307F1100210461946BC
:105908000222FBF78FFCBB6B93F827303B65BB6B20
:105918002733FB6402237B630F233B6314E0BB6BD9
:105928001F3307F11002104619460222FBF77AFCD2
:10593800BB6B93F821303B65BB6B2133FB640223BF
:105948007B6309233B6300BF7B6893F87232002BAB
:105958000AD07B6893F87332002B05D07868FEF77D
:10596800B9FD00233B6047E17B68002283F872227F
:105978007B68B3F838223B7C19467B7C1B029BB2C0
:105988000B449BB29A4201D13B6D7B657B6D692BC1
:1059980000F0C9806A2B00F08480612B40F01B81E5
:1059A800002387F82F30BB6B5A697B681B6D1A443C
:1059B8007B681A667B681B6E1846FDF7E1FA7B6800
:1059C80003F60122FB6C0133104619460422FBF74B
:1059D80029FC3A7C7B6883F8C6217A7C7B6883F84B
:1059E800C7217B6803F2C313032019462022FCF762
:1059F80055FE0320FDF7CAFA0346002B17D07B6833
:105A080009221A700020FDF767FB7B68002283F8E3
:105A180071227B68D3F8AC325A1C7B68C3F8AC227D
:105A28007B6801225A60012387F82F3024E07B68C5
:105A380093F8C3217B6883F875227B68022283F878
:105A480071227B68DB6B1846FDF742F87B68012200
:105A58005A607B6807221A707B6893F83C325A1C9C
:105A6800D1B27A6882F83C127A6882F8C331BB6B8B
:105A78001A697B68C3F864227B68002283F8722263
:105A88007B6805229A707B6893F82030002B07D139
:105A98001820FCF7E5FE7B68012283F82020A1E0AE
:105AA800A0E0FB6C01331B781A467B68C3F884229C
:105AB8007B68D3F88422FB6C02331B781B021A44E0
:105AC8007B68C3F884227B68D3F88422FB6C033399
