:020000040800F2
:100000000000012005280008450B00088D0B0008A2
:10001000AD0B0008B50B0008BD0B00080000000088
:10002000000000000000000000000000C50B0008F8
:10003000D10B000800000000DD0B0008050C0008D3
:100040004D2800084D2800084D280008E90B00083D
:100050004D2800084D280008550C0008650C0008C4
:100060004D280008990C00084D2800084D2800086C
:100070004D2800084D2800084D2800084D2800088C
:100080004D2800084D2800084D2800084D2800087C
:100090004D2800084D2800084D280008A90C00082C
:1000A0004D2800084D2800084D2800084D2800085C
:1000B0004D2800084D2800084D2800084D2800084C
:1000C0004D2800084D2800084D2800084D2800083C
:1000D0004D2800084D2800084D280008311300085D
:1000E000290C00084D2800084D28000800000000D9
:1000F0000000000000000000000000000000000000
:1001000000000000000000004D2800084D280008F5
:100110004D2800084D2800084D2800084D280008EB
:100120004D2800084D2800084D2800084D280008DB
:100130004D2800083D0C0008490C00084D28000817
:100140004D2800084D2800084D2800084D280008BB
:10015000000000000000000000000000000000009F
:10016000000000000000000000000000000000008F
:10017000000000000000000000000000000000007F
:10018000000000000000000000000000000000006F
:10019000000000000000000000000000000000005F
:1001A000000000000000000000000000000000004F
:1001B000000000000000000000000000000000003F
:1001C000000000000000000000000000000000002F
:1001D000000000000000000000000000000000001F
:0401E0005FF8E0F1F3
:1001E40008B540F24C00074BC2F200001B1A062B64
:1001F40000D808BD40F20003C0F20003002BF8D081
:100204009847F6E74F00002008B540F24C0040F252
:100214004C03C2F20000C2F200031B1A9B1003EB52
:10022400D373591000D108BD40F20002C0F200029D
:10023400002AF8D09047F6E710B540F25004C2F215
:100244000004237873B9FFF7CBFF40F20003C0F238
:1002540000032BB142F63030C0F60000AFF300804B
:100264000123237010BD00BF08B540F20003C0F2A3
:1002740000034BB142F6303040F25401C0F60000A6
:10028400C2F20001AFF3008040F24C00C2F2000061
:1002940003682BB140F20003C0F2000303B1984796
:1002A400BDE80840B0E700BF70B542F6483642F6F4
:1002B4004835C0F60006C0F60005761BB6101CBF14
:1002C400043D002405D0013455F8043F9847A64264
:1002D400F9D142F64C3642F64835C0F60005C0F670
:1002E4000006761B02F022FCB6101CBF043D00245D
:1002F40006D0013455F8043F9847A642F9D170BDA1
:1003040070BD00BF80B483B000AF0346FB714FF4EF
:100314006143CEF2000397F907205209F97901F0FD
:100324001F01012000FA01F143F822100C37BD46E9
:100334005DF8047B704700BF80B483B000AF034610
:10034400FB714FF46143CEF2000397F90720520981
:10035400F97901F01F01012000FA01F1203243F87C
:1003640022100C37BD465DF8047B704780B582B01F
:1003740000AF172000F0A4F903467B607B68002BD4
:1003840002D01720FFF7D8FF7B6818460837BD4610
:1003940080BD00BF80B582B000AF78607B68002B61
:1003A40002D01720FFF7AEFF0837BD4680BD00BF5F
:1003B4002DE9704F9046994682468B46FFF7D6FF4B
:1003C4004FF40063C4F2010310224FF440565A6103
:1003D400C4F201064FF0000EBAF1000F0ED01BF864
:1003E4000E30B38135894FF44054EA07C4F2010456
:1003F400F8D50EF1010ED645A389F0DB00214FF4A8
:1004040040550E46C4F20105B8F1000F0ED019F89C
:100414000130AB812C894FF44051E307C4F2010150
:10042400F8D5013646458B893146F0D14FF4006347
:10043400C4F2010310221A61FFF7ACFF0020BDE8EB
:10044400708F00BF2DE9704F9046994682468B46C7
:10045400FFF78CFF4FF40063C4F2010310224FF442
:1004640040565A61C4F201064FF0000EBAF1000F73
:100474000ED01BF80E30B38135894FF44054EA078F
:10048400C4F20104F8D50EF1010ED645A389F0DBC0
:10049400B8F1000F16D04FF0000E4FF440557646D9
:1004A4007246C4F20105AA812C894FF44051E30736
:1004B400C4F20101F8D501368B89464509F80E309E
:1004C400B646F0D14FF40063C4F2010310221A615E
:1004D400FFF760FF0020BDE8708F00BF80B483B0D9
:1004E40000AF03463960FB7197F90730002B0EDA31
:1004F4004FF46D43CEF20003FA7902F00F02111F9C
:100504003A68D2B21201D2B20B441A760CE04FF41C
:100514006143CEF2000397F907103A68D2B2120190
:10052400D2B20B4483F800230C37BD465DF8047B3C
:10053400704700BF80B582B000AF78607B68B3F1CC
:10054400807F01D301231AE04EF21003CEF20003A0
:100554007A6822F07F42013A5A604FF0FF300F214F
:10056400FFF7BCFF4EF21003CEF2000300229A60A4
:100574004EF21003CEF2000307221A60002318463D
:100584000837BD4680BD00BF80B400AF4FF0FF33D5
:100594001846BD465DF8047B704700BF80B500AFC8
:1005A40040F24803C2F200031A6844F6D353C1F27E
:1005B4006203A3FB02139B091846FFF7BBFF034624
:1005C400002B00D0FEE74FF0FF300521FFF786FF38
:1005D4000023184680BD00BF80B584B000AF00F092
:1005E4003FF82023BB812823FB7307F10C034FF44E
:1005F4004060C4F20100194601F0B6F8012005215B
:1006040001F0A4F920237B6000233B7208237B7252
:100614000123BB723B1D184600F0BEFF4FF440702F
:1006240000F03EFF17233B700F237B700023BB7049
:100634000123FB703B46184600F046FF27233B701E
:100644000A237B700023BB700123FB703B461846D2
:1006540000F03AFF002318461037BD4680BD00BFA6
:1006640080B584B000AF0223BB812823FB7307F15C
:100674000C034FF48050C4F20100194601F074F8E1
:100684000220012101F062F902237B6000233B7206
:1006940008237B720123BB723B1D184600F07CFFCC
:1006A40007233B700F237B700023BB700123FB7077
:1006B4003B46184600F008FF1037BD4680BD00BF1A
:1006C40080B485B000AF78600023FB730023BB6067
:1006D4004FF48063C4F201031A687B681340BB6063
:1006E400BB68002B02D00123FB7301E00023FB73E2
:1006F400FB7B18461437BD465DF8047B704700BF8A
:1007040080B586B000AF01F067F94FF4803001F096
:10071400C3F901F005FA0346FB75FB7D002B42D0BB
:10072400102000F0FFFF022000F0DCFF002001F0A9
:10073400F5FA002001F032FB4FF4806001F00EFB6B
:100744004FF4004001F04AFB302001F067FA4FF407
:10075400C06001F083FA012001F0A0FA00BF3B2041
:1007640001F014FD0346002BF9D04FF48030022130
:1007740001F030FA4FF480304FF4E01101F0F8F951
:10078400012001F017FA00BF392001F0FFFC0346F5
:10079400002BF9D0022001F091FA00BF01F0AEFA6B
:1007A4000346082BFAD13B46184601F037FB7D205F
:1007B400012101F04BFC002318461837BD4680BDCB
:1007C40080B586B000AF4FF49040C4F2000001F051
:1007D40023FE0920012101F039FC4FF4802001217E
:1007E40001F05CFC4FF41673BB600023BB81002353
:1007F400FB8100233B820023BB820C237B8207F115
:1008040008034FF49040C4F20000194601F064FE5E
:100814004FF48063BB801823FB710223BB713B1D23
:100824004FF44060C4F20100194600F09DFF4FF4FC
:100834000063BB800423FB710223BB713B1D4FF497
:100844004060C4F20100194600F08EFF4FF490405E
:10085400C4F20000012101F001FF002318461837FB
:10086400BD4680BD80B582B000AF7D20012101F07E
:10087400EDFB4FF6FF73BB800023FB713B1D4FF470
:100884000060C4F20100194600F06EFF3B1D4FF4F6
:100894004060C4F20100194600F066FF3B1D4FF4AE
:1008A4008050C4F20100194600F05EFF3B1D4FF476
:1008B400A050C4F20100194600F056FF3B1D4FF44E
:1008C400C050C4F20100194600F04EFF4FF48043BB
:1008D400BB801023FB710323BB713B1D4FF44060AD
:1008E400C4F20100194600F03FFF4FF48073BB804F
:1008F4001023FB710323BB713B1D4FF40060C4F252
:100904000100194600F030FF4FF40060C4F201000A
:100914004FF4807101F00CF84FF44060C4F2010010
:100924004FF4804101F004F841F2C803BB80102366
:10093400FB710323BB713B1D4FF48050C4F20100D3
:10094400194600F011FF002318460837BD4680BD44
:1009540080B584B000AF0346FB800123FB60FB88B5
:100964004FF48050C4F20100194600F0B9FF034669
:10097400002B01D00023FB60FB6818461037BD46EE
:1009840080BD00BF80B582B000AF0346FB71FB7928
:10099400042B38D801A252F823F000BFB50900088F
:1009A400C5090008D5090008E7090008F909000885
:1009B4004FF48050C4F20100402100F0B9FF23E05D
:1009C4004FF48050C4F20100802100F0B1FF1BE01D
:1009D4004FF48050C4F201004FF4807100F0A8FF7E
:1009E40012E04FF48050C4F201004FF4007100F0A3
:1009F4009FFF09E04FF48050C4F201004FF470717E
:100A040000F096FF00E000BF0837BD4680BD00BF80
:100A140080B582B000AF0346FB71FB79042B38D854
:100A240001A252F823F000BF410A0008510A00084D
:100A3400610A0008730A0008850A00084FF4805010
:100A4400C4F20100402100F065FF23E04FF4805020
:100A5400C4F20100802100F05DFF1BE04FF48050E0
:100A6400C4F201004FF4807100F054FF12E04FF41F
:100A74008050C4F201004FF4007100F04BFF09E014
:100A84004FF48050C4F201004FF4707100F042FF43
:100A940000E000BF0837BD4680BD00BF80B500AF91
:100AA400FFF72EFEFFF7DEFEFFF778FD00F008F8F3
:100AB400FFF792FDFFF768FD0023184680BD00BFD5
:100AC40080B584B000AF0120012101F0E7FA42F6BD
:100AD400E063BB800023FB804FF6FF733B81002360
:100AE4007B8100233B733B1D4FF08040194601F08E
:100AF400E7FB4FF08040002101F06EFC0220012151
:100B040001F0CCFA0C23BB801023FB804FF6FF735B
:100B14003B8100237B8100233B733B1D4FF48060AA
:100B2400C4F20000194601F0CBFB4FF48060C4F21C
:100B34000000012101F050FC1037BD4680BD00BF0C
:100B440080B400AFBD465DF8047B704780B48BB0C1
:100B540000AF78607B681B687B627B685B683B6284
:100B64007B689B68FB617B68DB68BB617B681B6996
:100B74007B617B685B693B617B689B69FB607B682D
:100B8400DB69BB60FEE700BF80B400AF1EF0040F5A
:100B94000CBFEFF30880EFF309808169004A104726
:100BA400510B0008FEE700BF80B400AFFEE700BFB2
:100BB40080B400AFFEE700BF80B400AFFEE700BF23
:100BC40080B400AFBD465DF8047B704780B400AFCD
:100BD400BD465DF8047B704780B400AFBD465DF848
:100BE400047B704780B500AF012001F023FB03466E
:100BF400002B04D0012001F049FB01F009FB80BD6A
:100C040080B400AF40F2F003C2F200031B685A1C28
:100C140040F2F003C2F200031A60BD465DF8047BA3
:100C2400704700BF80B500AFAFF300804FF40050B1
:100C340000F048FD80BD00BF80B400AFBD465DF844
:100C4400047B704780B400AFBD465DF8047B7047F9
:100C540080B500AF00F0C8FB012000F033FD80BD7B
:100C640080B582B000AF0023FB8002E0FB88013333
:100C7400FB80FB88B3F5966FF8D30220FFF768FE7C
:100C84000346012B02D0022000F01CFD0837BD46AC
:100C940080BD00BF80B500AF00F0ACFB082000F0C1
:100CA40011FD80BD80B500AF00F0A4FB202000F052
:100CB40009FD80BD00B583B0B9B17F2960F03F0064
:100CC4008DF8000085BF61F07F00C9098DF801101F
:100CD4008DF801008ABF8DF80210022003206946B6
:100CE400FFF766FB03B05DF804FB60F07F008DF84E
:100CF400000069460120FFF75BFB03B05DF804FBCD
:100D040000B583B0B9B17F2940F040008DF80000F0
:100D140085BF61F07F00C9098DF801108DF80100CD
:100D24008ABF8DF80210022003206946FFF78AFB70
:100D340003B05DF804FB8DF8000069460120FFF75D
:100D440081FB03B05DF804FB00B5042283B080B2DC
:100D540089B20DEB0203FFF7D3FF20B14FF0FF3050
:100D640003B05DF804FB9DF807009DF806309DF87C
:100D74000520A0F5807003EB00209DF8043002EB01
:100D8400002003EB002003B05DF804FB00B583B042
:100D940080B289B202226B46FFF7B2FF20B14FF650
:100DA400FF7003B05DF804FB9DF801009DF800306E
:100DB40003EB002080B203B05DF804FB30B583B0D0
:100DC4001446150A89B202226B4680B28DF800409F
:100DD4008DF80150FFF76EFF03B030BD70B582B0DF
:100DE4004FEA122E1446160C150E89B204226B46D5
:100DF40080B28DF800408DF801E08DF802608DF826
:100E04000350FFF757FF02B070BD00BF2DE97041DA
:100E140040F26C04C2F20004627F002385B01946DC
:100E24000F2084F85A2084F85430FFF78DFF4205D0
:100E3400054603D5667F002E00F0878015F48046B2
:100E440046D0680541D515F4801640F099803146A6
:100E54001020FFF79BFF984B804631461120022259
:100E6400FFF74EFF637B002B00F0CB80C8F309082B
:100E740040F26C0315F00802A4F85680C2F2000395
:100E840008D093F8581001F0200101F0FF00002968
:100E940000F0E68084F855204FF00008617F40F2AE
:100EA4006C060223C2F2000684F85430002940F094
:100EB400AB8005F4DE4248EA02020F20FFF78EFF02
:100EC400B36F13B106F15400984705B0BDE87081C3
:100ED40015F0800168D115F4003640F081804FF49C
:100EE4001042C2F227422A40002AEED00F20314697
:100EF400FFF774FF236A84F869609B0040F1C580A2
:100F040000F036F9EE0444BF082384F8543014D4B6
:100F1400280400F1BD80E90344BF092384F8543058
:100F24000BD46A0144BF0A2384F8543005D4AB02BD
:100F340040F1AE800B2384F85430A36F002BC4D04F
:100F44005E48984705B0BDE8708100F46063B3F56E
:100F5400606F3FF473AF00F0BBF800F009F9236A47
:100F640005F0F8059B0000F18980A36F032284F843
:100F74005420002B3FF462AF04F1540098475DE71E
:100F840000F0A6F800F0F4F8236A40F26C0099002F
:100F9400C2F200005DD4836F032280F85420002B3A
:100FA40093D05430984790E7F8220F203146FFF74A
:100FB40015FF94F8552040F26C03C2F2000342B1CD
:100FC4005A7F83F8556022B993F869300BB100F069
:100FD4007FF8636F012284F85420002BB0D174E7AA
:100FE40032460F20FFF7FAFEA36F042284F8542040
:100FF4000BB132489847002384F8693005B0BDE846
:10100400708108F07F0833E7012632466B460F20D3
:1010140003218DF80860FFF773FE9DF8003023F07C
:101024007F0203F04003B2EB430F3BD0216A11F07F
:10103400005131D0A36F0BB12048984700F040F81D
:10104400A8B100F045F800F093F8236A9A007FF500
:101054003CAF00214FF480720D20FFF7AFFE34E760
:1010640083F8550083F869004FF0080816E7032158
:10107400012202AB0D20FFF71DFE26E731464FF497
:1010840080720D20FFF79AFED8E600F021F837E7CA
:10109400032384F8543050E74FF480720D20FFF797
:1010A4008DFEC7E705F4C04248EA020200210F2082
:1010B400FFF794FEBAE700BFC4000020C000002080
:1010C40008B502210F20FFF761FE00F0100008BDF3
:1010D40070B582B04023002102AC0E2004F8083D14
:1010E400FFF732FE0646FFF741F9002105460A469E
:1010F4000E20FFF773FE6B46002101220D20FFF73F
:10110400D9FD4FF6F872C2F2274200210F20FFF7F3
:1011140065FE00F011F8324600210E20FFF75EFE56
:101124002846FFF737F940F26C03C2F200030022AD
:1011340083F8692002B070BD00B585B001226B460A
:101144000F200321FFF7DCFD9DF8003023F07F0220
:1011540003F04003B2EB430F07D0012204AB03F8C2
:10116400082D0D200321FFF7A5FD05B05DF804FB54
:1011740010B582B002ACE02304F8083D03216B46AD
:1011840001223620FFF796FDF0246B46032101224D
:1011940036208DF80040FFF78DFD02B010BD00BF72
:1011A40080B483B000AF786040F2F803C2F2000369
:1011B4007A68C3F8FC290C37BD465DF8047B704798
:1011C40080B483B000AF0346FB714FF46143CEF2A9
:1011D400000397F907205209F97901F01F01012052
:1011E40000FA01F143F822100C37BD465DF8047B88
:1011F400704700BF80B483B000AF0346FB714FF467
:101204006143CEF2000397F907205209F97901F0FE
:101214001F01012000FA01F1203243F822100C379B
:10122400BD465DF8047B704780B483B000AF78603E
:101234007B681B88591C46F26763C6F2666383FBAE
:101244000123DA10CB17D21A13469B0013449B00D8
:10125400CA1A7B685B889A4214BF00230123DBB25D
:1012640018460C37BD465DF8047B704780B483B0E4
:1012740000AF78607B681A887B685B889A4214BFE9
:1012840000230123DBB218460C37BD465DF8047B0E
:10129400704700BF80B582B000AF7860396078686D
:1012A400FFF7C2FF0346002B01D0002313E07B6845
:1012B4001B883A68127879680B441A717B681B881A
:1012C400132B04D07B681B8801339BB200E00023FE
:1012D4007A681380012318460837BD4680BD00BFD5
:1012E40080B582B000AF786039607868FFF7BEFFE0
:1012F4000346002B01D0002313E07B685B887A68E7
:1013040013441A793B681A707B685B88132B04D0EA
:101314007B685B8801339BB200E000237A685380CA
:10132400012318460837BD4680BD00BF80B582B092
:1013340000AF4FF49040C4F2000040F2277101F076
:1013440007FA0346002B22D0FB1D40F61830C2F2E8
:1013540000001946FFF7C4FF0346002B08D0FB79B1
:101364004FF49040C4F20000194601F0DFF90EE09A
:101374004FF49040C4F2000040F22771002201F0C3
:101384008DF940F2E803C2F2000300221A70083714
:10139400BD4680BD80B582B000AF786000BF3B1D04
:1013A40040F61830C2F200001946FFF773FF0346F7
:1013B400002BF4D040F2E803C2F200031B78DBB246
:1013C400002B0ED140F2E803C2F2000301221A708E
:1013D4004FF49040C4F2000040F22771012201F062
:1013E4005DF90837BD4680BD80B500AF0120FFF729
:1013F400D7FE80BD80B500AFFFF708FD4FF4406015
:10140400C4F20100202100F06BFA0346012BF3D053
:1014140080BD00BF80B59CB000AF0023BB66012334
:101424007B6600233B664FF000024FF00003C7E9E0
:1014340016234FF000024FF00003C7E914230420E1
:10144400FFF7A0FAFFF72AFBFFF7BAF91720FFF717
:10145400D1FE0420FFF796FA0420FFF7D9FA0420FE
:10146400FFF790FA0420FFF78DFA0420FFF78AFAB9
:101474001720FFF7A5FE0023FB66FB6E192B01DD89
:101484000023FB6640F20003C2F20003FA6E33F855
:1014940012301846FFF77EFFFB6E0133FB66ECE764
:1014A40080B483B000AF78604FF46D43CEF2000394
:1014B4007A6842F0BF6242F40032DA600C37BD460B
:1014C4005DF8047B704700BF80B487B000AF7860DC
:1014D40000237B6100233B610F23FB607B68DB7887
:1014E400002B42D04FF46D43CEF20003DB68DB43A4
:1014F40003F4E0631B0A7B617B69C3F104033B6172
:101504007B69FA6822FA03F3FB607B685B781A460E
:101514003B6902FA03F37B617B689B781A46FB689C
:1015240013407A6913437B617B691B017B614FF430
:101534006143CEF200037A68127811467A69D2B216
:101544000B4483F800234FF46143CEF200037A681E
:1015540012785209D2B27968097801F01F0101208A
:1015640000FA01F143F8221011E04FF46143CEF286
:1015740000037A6812785209D2B27968097801F0C6
:101584001F01012000FA01F1203243F822101C3718
:10159400BD465DF8047B704780B485B000AF7860C9
:1015A4000023FB604FF48063C4F20103FB607B689B
:1015B4009B79002B74D04FF48063C4F201034FF481
:1015C4008062C4F2010211687A681268D2430A4048
:1015D4001A604FF48063C4F201034FF48062C4F2D2
:1015E400010251687A681268D2430A405A607B68E3
:1015F4001B79FA681344FB60FB68FA6811687A681F
:1016040012680A431A604FF48063C4F201034FF472
:101614008062C4F2010291687A681268D2430A4077
:101624009A604FF48063C4F201034FF48062C4F201
:101634000102D1687A681268D2430A40DA607B6892
:101644005B79102B1AD14FF48063C4F201034FF479
:101654008062C4F2010291687A6812680A439A604F
:101664004FF48063C4F201034FF48062C4F20102B8
:10167400D1687A6812680A43DA601EE04FF4806326
:10168400C4F20103FB607B685B79FA681344FB6076
:10169400FB68FA6811687A6812680A431A600CE0F9
:1016A4007B681B79FA681344FB60FB68FA6811686D
:1016B4007A681268D2430A401A601437BD465DF84E
:1016C400047B704780B483B000AF78604FF48063CC
:1016D400C4F201037A685A610C37BD465DF8047B95
:1016E400704700BF80B485B000AF78600023FB6012
:1016F4004FF40053C4F202031B68FB60FB6803F061
:101704003803FB60FA687B681343FB604FF40053B3
:10171400C4F20203FA681A601437BD465DF8047B0C
:10172400704700BF80B483B000AF78604FF40053BB
:10173400C4F202034FF40052C4F20202126822F00F
:1017440010021A604FF40053C4F202034FF4005223
:10175400C4F2020211687A680A431A600C37BD4663
:101764005DF8047B704700BF80B489B000AF786037
:1017740039600023FB6100233B610023BB6100232C
:10178400FB6000237B610023BB603B68DB7803F0D4
:101794000F03FB613B68DB7803F01003002B04D0DC
:1017A4003B689B78FA691343FB613B681B88DBB297
:1017B400002B44D07B681B687B610023BB6138E04D
:1017C400BB69012202FA03F3FB603B681B881A46DB
:1017D400FB6813403B613A69FB689A4226D1BB69B6
:1017E4009B00FB60FB680F2202FA03F3BB60BB683B
:1017F400DB437A6913407B61FB68FA6902FA03F3FD
:101804007A6913437B613B68DB78282B05D1BB697C
:1018140001229A407B685A6108E03B68DB78482BD8
:1018240004D1BB6901229A407B681A61BB69013308
:10183400BB61BB69072BC3D97B687A691A603B68B3
:101844001B88FF2B46D97B685B687B610023BB61E7
:101854003AE0BB690833012202FA03F3FB603B68F8
:101864001B881A46FB6813403B613A69FB689A423D
:1018740027D1BB699B00FB60FB680F2202FA03F3CC
:10188400BB60BB68DB437A6913407B61FB68FA6920
:1018940002FA03F37A6913437B613B68DB78282BF4
:1018A40005D1BB69083301229A407B685A613B68C1
:1018B400DB78482B05D1BB69083301229A407B6849
:1018C4001A61BB690133BB61BB69072BC1D97B6852
:1018D4007A695A602437BD465DF8047B704700BFBF
:1018E40080B485B000AF78600B467B800023FB7327
:1018F4007B689A687B881340002B02D00123FB731A
:1019040001E00023FB73FB7B18461437BD465DF8EA
:10191400047B704780B483B000AF78600B467B8053
:101924007A887B681A610C37BD465DF8047B704782
:1019340080B483B000AF78600B467B807A887B6884
:101944005A610C37BD465DF8047B704790B484B08F
:1019540000AF02460B46FA71BB710023FB60BB79F2
:1019640003F003039B000F2202FA03F3FB6000233E
:10197400C4F20103BA799208D2B210460022C4F22A
:101984000102B9798908C9B2023152F82110FA6802
:10199400D2431140821C43F822100023C4F20103F5
:1019A400BA799208D2B210460022C4F20102B9797F
:1019B4008908C9B2023152F82110FC79BA7902F0CF
:1019C4000302920004FA02F21143821C43F822102B
:1019D4001037BD4690BC704780B400AF4FF48053BD
:1019E400C4F202034FF48052C4F20202126842F0BD
:1019F40001021A604FF48052C4F202024FF4805381
:101A0400C4F2020359680023CFF2FF030B40536072
:101A14004FF48053C4F202034FF48052C4F2020222
:101A2400126822F0847222F480321A604FF48053D8
:101A3400C4F202034FF48052C4F20202126822F488
:101A440080221A604FF48053C4F202034FF4805290
:101A5400C4F20202526822F4FE025A604FF4805328
:101A6400C4F202034FF48052C4F20202126822F05C
:101A7400A0521A604FF48053C4F202034FF47F0261
:101A84009A604FF48053C4F202030022DA62BD4626
:101A94005DF8047B704700BF80B483B000AF78600A
:101AA4004FF48053C4F202034FF48052C4F2020292
:101AB400126822F480321A604FF48053C4F2020395
:101AC4004FF48052C4F20202126822F480221A6097
:101AD4007B68B3F5803F03D0B3F5802F0DD019E0B8
:101AE4004FF48053C4F202034FF48052C4F2020252
:101AF400126842F480321A600CE04FF48053C4F24E
:101B040002034FF48052C4F20202126842F4A0228B
:101B14001A6000BF0C37BD465DF8047B704700BFF8
:101B240080B582B000AF00233B600023FB7100232B
:101B3400BB71312000F02AFB0346BB713B680133C3
:101B44003B603B68B3F5A06F02D0BB79002BF0D0AB
:101B5400312000F01BFB0346002B02D00123FB7154
:101B640001E00023FB71FB7918460837BD4680BDB0
:101B740080B485B000AF786039600023FB604FF417
:101B84008053C4F202035B68FB60FB6823F47413A4
:101B9400FB607A683B681343FA681343FB604FF4B5
:101BA4008053C4F20203FA685A601437BD465DF8E4
:101BB400047B704780B483B000AF0346FB7160239D
:101BC400C4F24223FA791A600C37BD465DF8047BEF
:101BD400704700BF80B485B000AF786039600023DF
:101BE400FB604FF48053C4F20203DB6AFB60FB68C2
:101BF40023F4803323F00F03FB607A683B681343BC
:101C0400FA681343FB604FF48053C4F20203FA688A
:101C1400DA621437BD465DF8047B704780B485B042
:101C240000AF78600023FB604FF48053C4F20203DA
:101C3400DB6AFB60FB6823F0F003FB60FA687B68F7
:101C44001343FB604FF48053C4F20203FA68DA6270
:101C54001437BD465DF8047B704700BF80B485B07F
:101C640000AF78600023FB604FF48053C4F202039A
:101C7400DB6AFB60FB6823F47063FB60FA687B68D3
:101C84001343FB604FF48053C4F20203FA68DA6230
:101C94001437BD465DF8047B704700BF80B483B041
:101CA40000AF0346FB716823C4F24223FA791A6039
:101CB4000C37BD465DF8047B704700BF80B485B027
:101CC40000AF78600023FB604FF48053C4F202033A
:101CD4005B68FB60FB6823F00303FB60FA687B68C6
:101CE4001343FB604FF48053C4F20203FA685A6052
:101CF4001437BD465DF8047B704700BF80B400AF65
:101D04004FF48053C4F202035B68DBB203F00C03AC
:101D1400DBB21846BD465DF8047B704780B485B0DD
:101D240000AF78600023FB604FF48053C4F20203D9
:101D34005B68FB60FB6823F0F003FB60FA687B6878
:101D44001343FB604FF48053C4F20203FA685A60F1
:101D54001437BD465DF8047B704700BF80B485B07E
:101D640000AF78600023FB604FF48053C4F2020399
:101D74005B68FB60FB6823F4E063FB60FA687B68E4
:101D84001343FB604FF48053C4F20203FA685A60B1
:101D94001437BD465DF8047B704700BF80B485B03E
:101DA40000AF78600023FB604FF48053C4F2020359
:101DB4005B68FB60FB6823F46053FB607B68DB00BB
:101DC400FA681343FB604FF48053C4F20203FA68C9
:101DD4005A601437BD465DF8047B704780B485B003
:101DE40000AF78600023FB604FF48053C4F2020319
:101DF4005B68FB60FB6823F44043FB60FA687B6824
:101E04001343FB604FF48053C4F20203FA685A6030
:101E14001437BD465DF8047B704700BF80B48BB0B7
:101E240000AF786000233B6200237B620023FB61E8
:101E34000023BB6100237B6100233B610023FB6023
:101E44000023BB604FF48053C4F202035B6803F0C9
:101E54000C033B623B6A042B0AD0082B0FD0002BE7
:101E64007FD17A684FF49053C0F27A0313607FE015
:101E74007A684FF4D853C0F2B703136078E04FF494
:101E84008053C4F202035B6803F470137B624FF463
:101E94008053C4F202035B6803F48033FB617B6A02
:101EA4009B0C7B627B6A0D2B03D07B6A02337B62C3
:101EB40001E006237B62FB69002B09D17A6A4FF4A7
:101EC4001063C0F23D0303FB02F27B681A6047E033
:101ED4004FF48053C4F20203DB6A03F480337B6162
:101EE4004FF48053C4F20203DB6A03F00F0301339F
:101EF4003B617B69002B0CD14FF4D853C0F2B7037C
:101F04003A69B3FBF2F37A6A02FB03F27B681A6064
:101F140026E04FF48053C4F20203DB6A03F0F003BB
:101F24001B090133FB604FF48053C4F20203DB6AE4
:101F340003F470631B0A0233BB604FF4D853C0F23E
:101F4400B703FA68B3FBF2F3BA6802FB03F23B6926
:101F5400B2FBF3F37A6A02FB03F27B681A6007E0D0
:101F640006E07A684FF49053C0F27A03136000BF1E
:101F74004FF48053C4F202035B6803F0F0033B6246
:101F84003B6A1B093B6240F23403C2F200033A6A23
:101F940013441B78DBB2BB617B681A68BB69DA4007
:101FA4007B685A604FF48053C4F202035B6803F405
:101FB400E0633B623B6A1B0A3B6240F23403C2F2B9
:101FC40000033A6A13441B78DBB2BB617B685A682E
:101FD400BB69DA407B689A604FF48053C4F2020311
:101FE4005B6803F460533B623B6ADB0A3B6240F28A
:101FF4003403C2F200033A6A13441B78DBB2BB61B8
:102004007B685A68BB69DA407B68DA604FF48053B6
:10201400C4F202035B6803F440433B623B6A9B0BDC
:102024003B6240F24403C2F200033A6A13441B7851
:10203400DBB2BB617B68DA68BB69B2FBF3F27B6835
:102044001A612C37BD465DF8047B704780B483B0B9
:1020540000AF78600B46FB70FB78002B0CD04FF47C
:102064008053C4F202034FF48052C4F20202916915
:102074007A680A439A610CE04FF48053C4F2020375
:102084004FF48052C4F2020291697A68D2430A4042
:102094009A610C37BD465DF8047B704780B483B009
:1020A40000AF78600B46FB70FB78002B0CD04FF42C
:1020B4008053C4F202034FF48052C4F20202D16985
:1020C4007A680A43DA610CE04FF48053C4F20203E5
:1020D4004FF48052C4F20202D1697A68D2430A40B2
:1020E400DA610C37BD465DF8047B704780B483B079
:1020F40000AF78600B46FB70FB78002B0CD04FF4DC
:102104008053C4F202034FF48052C4F20202D16835
:102114007A680A43DA600CE04FF48053C4F2020395
:102124004FF48052C4F20202D1687A68D2430A4062
:10213400DA600C37BD465DF8047B704780B483B029
:1021440000AF78600B46FB70FB78002B0CD04FF48B
:102154008053C4F202034FF48052C4F202021169A4
:102164007A680A431A610CE04FF48053C4F2020304
:102174004FF48052C4F2020211697A68D2430A40D1
:102184001A610C37BD465DF8047B704780B487B094
:1021940000AF0346FB710023FB6000237B61002337
:1021A400FB74FB795B09DBB2FB60FB68012B06D196
:1021B4004FF48053C4F202031B687B610FE0FB6899
:1021C400022B06D14FF48053C4F202031B6A7B61D5
:1021D40005E04FF48053C4F202035B6A7B61FB7930
:1021E40003F01F03FB60FB687A6922FA03F303F030
:1021F4000103002B02D00123FB7401E00023FB74D4
:10220400FB7C18461C37BD465DF8047B704700BF55
:1022140080B400AF00BF4FF42053C4F200039B8886
:102224009BB203F02003002BF5D0BD465DF8047B80
:10223400704700BF80B485B000AF0346FB80002325
:10224400FB734FF42053C4F200039B889BB2DAB2B1
:10225400FB88DBB21340FB734FF42053C4F200033A
:102264001B889AB2FB8813409BB2002B05D0FB7BE2
:10227400002B02D00123FB7301E00023FB73FB7BE3
:1022840018461437BD465DF8047B704780B483B0AC
:1022940000AF0346FB804FF42053C4F200034FF415
:1022A4002052C4F20002928891B2FA88D24392B2C8
:1022B4000A4092B29A800C37BD465DF8047B7047A1
:1022C40080B485B000AF786039600023FB817B68FF
:1022D4001B88FB817A684FF43053C4F201039A429D
:1022E4001FD07A684FF45053C4F201039A4218D0B5
:1022F4007B68B3F1804F14D07A684FF48063C4F2E2
:1023040000039A420DD07A684FF40063C4F20003CC
:102314009A4206D07A684FF44063C4F200039A42AA
:1023240008D1FB8923F07003FB813B685A88FB8941
:102334001343FB817A684FF48053C4F200039A423A
:102344000FD07A684FF4A053C4F200039A4208D025
:10235400FB8923F44073FB813B68DA88FB891343D0
:10236400FB817B68FA891A803B689A887B689A8526
:102374003B681A887B681A857A684FF43053C4F234
:1023840001039A421BD07A684FF45053C4F20103FC
:102394009A4214D07A684FF48043C4F201039A42FB
:1023A4000DD07A684FF48843C4F201039A4206D0F0
:1023B4007A684FF49043C4F201039A4204D13B6813
:1023C4001B7A1A467B681A867B6801229A82143724
:1023D400BD465DF8047B704780B483B000AF78607D
:1023E4000B46FB70FB78002B08D07B681B889BB2E4
:1023F40043F001039AB27B681A8007E07B681B886C
:102404009BB223F001039AB27B681A800C37BD4655
:102414005DF8047B704700BF80B582B000AF786080
:102424007A684FF46053C4F201039A420AD14FF41C
:1024340080400121FFF75AFE4FF480400021FFF74E
:1024440055FE46E07A684FF48843C4F200039A428A
:102454000AD14FF400300121FFF770FE4FF4003031
:102464000021FFF76BFE34E07A684FF49043C4F226
:1024740000039A420AD14FF480200121FFF75EFE47
:102484004FF480200021FFF759FE22E07A684FF4D0
:102494009843C4F200039A420AD14FF40020012168
:1024A400FFF74CFE4FF400200021FFF747FE10E039
:1024B4007A684FF4A043C4F200039A4209D14FF45E
:1024C40080100121FFF73AFE4FF480100021FFF73E
:1024D40035FE0837BD4680BD80B58CB000AF78604E
:1024E40039600023FB620023BB6200237B6200236C
:1024F4003B620023FB617B68FB617B681B8A9BB2A8
:10250400FB62FA6A4CF6FF731340FB623B68DB889C
:10251400FA6A1343FB62FB6A9AB27B681A827B688D
:102524009B899BB2FB62FA6A4EF6F3131340FB627B
:102534003B689A883B681B8913439AB23B685B8962
:1025440013439BB2FA6A1343FB62FB6A9AB27B6839
:102554009A817B689B8A9BB2FB62FA6A4FF6FF43BF
:102564001340FB623B689B89FA6A1343FB62FB6A74
:102574009AB27B689A8207F108031846FFF74EFC6B
:10258400FA694FF46053C4F201039A4202D17B69A1
:10259400BB6201E03B69BB627B689B899BB29BB2D7
:1025A4001BB2002B0CDABA6A13469B0013449A0040
:1025B4001A443B681B685B00B2FBF3F37B620BE0DD
:1025C400BA6A13469B0013449A001A443B681B687A
:1025D4009B00B2FBF3F37B627A6A48F21F53C5F2A5
:1025E400EB13A3FB02135B091B01FB62FB6A1B09D0
:1025F400642202FB03F37A6AD31A3B627B689B89E9
:102604009BB29BB21BB2002B10DA3B6ADB0003F1D6
:10261400320248F21F53C5F2EB13A3FB02135B090A
:1026240003F00703FA6A1343FB620FE03B6A1B01E2
:1026340003F1320248F21F53C5F2EB13A3FB02135A
:102644005B0903F00F03FA6A1343FB62FB6A9AB255
:102654007B681A813037BD4680BD00BF80B483B02B
:1026640000AF78600B46FB70FB78002B08D07B68CA
:102674009B899BB243F400539AB27B689A8107E02A
:102684007B689B899BB223F400539AB27B689A813E
:102694000C37BD465DF8047B704700BF80B487B03B
:1026A40000AF786013460A467A807B7000233B6152
:1026B4000023FB600023BB6000237B617B687B619C
:1026C4007B88DBB25B09DBB23B617B8803F01F03D1
:1026D400FB60FB68012202FA03F3BB603B69012B38
:1026E40003D17B690C337B6109E03B69022B03D185
:1026F4007B6910337B6102E07B6914337B617B78F7
:10270400002B06D07B697A691168BA680A431A609B
:1027140006E07B697A691168BA68D2430A401A6094
:102724001C37BD465DF8047B704700BF80B483B09E
:1027340000AF78600B467B807B88C3F308039AB2B2
:102744007B689A800C37BD465DF8047B704700BFF8
:1027540080B487B000AF78600B467B800023FB60B9
:1027640000237B610023BB600023FB747B88DBB206
:102774005B09DBB2BB607B8803F01F037B617B6971
:10278400012202FA03F37B61BB68012B06D17B684B
:102794009B899BB27A6913407B610FE0BB68022B73
:1027A40006D17B681B8A9BB27A6913407B6105E082
:1027B4007B689B8A9BB27A6913407B617B881B0A86
:1027C4009BB2FB60FB68012202FA03F3FB607B68A7
:1027D4001B889BB2FA681340FB607B69002B05D011
:1027E400FB68002B02D00123FB7401E00023FB747F
:1027F400FB7C18461C37BD465DF8047B704700BF60
:10280400002103E00B4B5B58435004310A480B4B47
:1028140042189A42F6D30A4A02E0002342F8043BE3
:10282400084B9A42F9D300F011F8FDF73DFDFEF78D
:10283400F1FD7047502B0008000000204C000020E0
:1028440050000020300B0020FEE7000080B500AFF0
:102854004FF48053C4F202034FF48052C4F20202D4
:10286400126842F001021A604FF48052C4F202026C
:102874004FF48053C4F2020359680023CFF2FF03DC
:102884000B4053604FF48053C4F202034FF4805260
:10289400C4F20202126822F0847222F480321A60B6
:1028A4004FF48053C4F202034FF48052C4F2020284
:1028B400126822F480221A604FF48053C4F2020397
:1028C4004FF48052C4F20202526822F4FE025A60AB
:1028D4004FF48053C4F202034FF48052C4F2020254
:1028E400126822F0A0521A604FF48053C4F202031B
:1028F4004FF47F029A604FF48053C4F20203002223
:10290400DA6200F009F84FF46D43CEF200034FF0A1
:1029140000629A6080BD00BF80B500AF00F002F88D
:1029240080BD00BF80B483B000AF00237B60002370
:102934003B604FF48053C4F202034FF48052C4F25C
:102944000202126842F480321A604FF48053C4F2D7
:1029540002031B6803F400333B607B6801337B6034
:102964003B68002B03D17B68B3F5A06FEDD14FF426
:102974008053C4F202031B6803F40033002B02D01B
:1029840001233B6001E000233B603B68012B40F0E6
:10299400C7804FF40053C4F202034FF40052C4F250
:1029A4000202126842F010021A604FF40053C4F29B
:1029B40002034FF40052C4F20202126822F003022E
:1029C4001A604FF40053C4F202034FF40052C4F2ED
:1029D4000202126842F002021A604FF48053C4F2F9
:1029E40002034FF48052C4F2020252685A604FF458
:1029F4008053C4F202034FF48052C4F202025268BC
:102A04005A604FF48053C4F202034FF48052C4F26C
:102A14000202526842F480625A604FF48052C4F257
:102A240002024FF48053C4F20203D96A4FF4704394
:102A3400CFF6FE730B40D3624FF48053C4F202030B
:102A44004FF48052C4F20202D26A42F4833242F05A
:102A54004402DA624FF48053C4F202034FF480520A
:102A6400C4F20202126842F080621A6000BF4FF49E
:102A74008053C4F202031B6803F00063002BF6D0FA
:102A84004FF48053C4F202034FF48052C4F20202A2
:102A9400526822F47C125A604FF48053C4F2020349
:102AA4004FF48052C4F20202526842F4E8125A60AF
:102AB4004FF48053C4F202034FF48052C4F2020272
:102AC400126842F080721A6000BF4FF48053C4F25F
:102AD40002031B6803F00073002BF6D04FF48053FD
:102AE400C4F202034FF48052C4F20202526822F08C
:102AF40003025A604FF48053C4F202034FF480522D
:102B0400C4F20202526842F002025A6000BF4FF45B
:102B14008053C4F202035B6803F00C03082BF6D164
:102B24000C37BD465DF8047B704700BFF8B500BFA5
:102B3400F8BC08BC9E467047F8B500BFF8BC08BC9A
:042B44009E467047F2
:042B48006D02000812
:042B4C003D0200083E
:102B50004100420043004400450046004700480051
:102B600049004A004B004C004D004E004F00500001
:102B700051005200530054005500560058005700B1
:102B800059005A000000000001020304010203047E
:0C2B9000060708090204060800A24A0417
:0400000508002805C2
:00000001FF
